:100000000C94D5140C9406150C9406150C94061536
:100010000C9406150C9406150C9406150C940615F4
:100020000C9406150C9406150C9406150C940615E4
:100030000C9406150C9406150C9406150C940615D4
:100040000C9406150C9482520C9406150C9406150B
:100050000C9406150C9406150C942B680C9464A152
:100060000C9406150C9408150C9406150C940615A2
:100070000C9406150C9406150C9406150C94061594
:100080000C9406150C9406150C9406150C94061584
:100090000C9406150C9406150C9406150C94061574
:1000A0000C9406150C9406150C9406150C94061564
:1000B0000C9406150C9406150C9406150C94061554
:1000C0000C9406150C9406150C9406150C94061544
:1000D0000C9406150C9406150C9406150C94061534
:1000E0000C940615A668B568D468D968DC68EB6816
:1000F00006690B690E69136916691B69256999A25E
:100100009EA2A3A2ADA2B7A230A3C1A2C9A2D1A2AE
:10011000DBA2E5A2EFA2FEA208A330A312A31CA3B8
:1001200026A351A354A343A347A34DA38BA358A332
:100130005CA362A366A36AA370A374A378A38BA332
:100140007EA382A386A3084AD73B3BCE016E84BC24
:10015000BFFDC12F3D6C74319ABD56833DDA3D0021
:10016000C77F11BED9E4BB4C3E916BAAAABE00006A
:1001700000803F05A84CCDB2D44EB93836A9020C48
:1001800050B9918688083CA6AAAA2ABE0000008021
:100190003F005072696E7465722068616C746564AA
:1001A0002E206B696C6C28292063616C6C6564215E
:1001B000004B494C4C45442E20004B494C4C454487
:1001C0002E200020746F6F206C6F6E67206578742E
:1001D000727573696F6E2070726576656E74656492
:1001E0000020636F6C6420657874727573696F6E3C
:1001F0002070726576656E746564006F6B00526581
:1002000073656E643A20004F66667365747320618F
:1002100070706C696564004572723A20546F6F208B
:100220006661722100546F6F206661722066726F82
:100230006D207265666572656E636520706F696EAC
:100240007400486F74656E64206F666673657473BE
:100250003A0053657474696E672054726176656CF8
:1002600020416363656C65726174696F6E3A20004A
:1002700053657474696E672052657472616374208B
:10028000416363656C65726174696F6E3A200053F7
:10029000657474696E67205072696E74204163637F
:1002A000656C65726174696F6E3A20005365747491
:1002B000696E67205072696E7420616E642054729A
:1002C0006176656C20416363656C65726174696F0A
:1002D0006E3A20004D31343520533C696E646578A8
:1002E0003E206F7574206F662072616E67652028EE
:1002F000302D3129007A5F6D61783A2000795F6D89
:10030000696E3A2000785F6D696E3A2000205A3A93
:100310000020593A0020436F756E7420583A20002F
:1003200020453A00205A3A0020593A00583A0046EF
:1003300049524D574152455F4E414D453A4D6172CC
:100340006C696E20312E312E302D524336202847D5
:1003500069746875622920534F555243455F434F76
:1003600044455F55524C3A68747470733A2F2F6746
:1003700069746875622E636F6D2F4D61726C696E62
:100380004669726D776172652F4D61726C696E207E
:1003900050524F544F434F4C5F56455253494F4E66
:1003A0003A312E30204D414348494E455F54595013
:1003B000453A3344205072696E7465722045585432
:1003C00052554445525F434F554E543A322055558D
:1003D00049443A63656465326132662D3431613275
:1003E0002D343734382D396231322D63353563364B
:1003F000326633363766660A003344205072696EBF
:10040000746572204F66662E003344205072696E08
:100410007465722072656164792E00486561746943
:100420006E6720646F6E652E003F0020573A0048CB
:10043000656174696E672E2E2E00334420507269F8
:100440006E7465722072656164792E006F6B004D69
:100450003131332053004B494C4C45442E2000454C
:1004600043484F00494E464F004552524F525300A9
:1004700044525952554E00434F4D4D554E494341FC
:1004800054494F4E006F6666005F0464046904704F
:1004900004770444454255473A0048656174696EE3
:1004A000672E2E2E003344205072696E74657220C0
:1004B00072656164792E002569206D696E2C202596
:1004C0006920736563004E6F206D6F76652E003373
:1004D00044205072696E7465722072656164792E71
:1004E000005761697420666F7220757365722E2ED5
:1004F0002E0054455354005761726E696E673A205E
:10050000486F6D696E672042756D70204469766929
:10051000736F72203C203100536C6565702E2E2E57
:100520000020400020403A00202F00205400202FBF
:100530000020543A00627573793A207061757365D2
:100540006420666F7220696E7075740062757379CD
:100550003A2070617573656420666F7220757365EB
:100560007200627573793A2070726F636573736994
:100570006E6700220A00556E6B6E6F776E20636F98
:100580006D6D616E643A20220020496E76616C695F
:100590006420657874727564657220004B494C4C18
:1005A00045442E200053544F505045442E200050B7
:1005B00072696E7465722073746F70706564206404
:1005C000756520746F206572726F72732E20466994
:1005D0007820746865206572726F7220616E642085
:1005E000757365204D39393920746F2072657374C5
:1005F0006172742E202854656D7065726174757215
:10060000652069732072657365742E2053657420AC
:1006100069742061667465722072657374617274A6
:10062000696E6729004E6F204C696E65204E756DAE
:10063000626572207769746820636865636B73759F
:100640006D2C204C617374204C696E653A20004E0D
:100650006F20436865636B73756D207769746820DC
:100660006C696E65206E756D6265722C204C6173CD
:1006700074204C696E653A2000636865636B73751E
:100680006D206D69736D617463682C204C617374A7
:10069000204C696E653A20004C696E65204E756D80
:1006A000626572206973206E6F74204C61737420D0
:1006B0004C696E65204E756D6265722B312C204C35
:1006C000617374204C696E653A20004D3131300001
:1006D0002020506C616E6E6572427566666572426E
:1006E000797465733A20002046726565204D656D0A
:1006F0006F72793A20004A756C20323420323031E2
:100700003600436F6D70696C65643A2000286E6F27
:100710006E652C2064656661756C7420636F6E660F
:1007200069672900207C20417574686F723A200047
:10073000323031362D30342D32342031323A3030AF
:1007400000204C61737420557064617465643A20B4
:100750000020312E312E302D524336004D61726C07
:10076000696E0020536F66747761726520526573FD
:10077000657400205761746368646F672052657305
:100780006574002042726F776E206F757420526519
:10079000736574002045787465726E616C205265D3
:1007A00073657400506F7765725570007374617271
:1007B00074002200656E7175657565696E6720222B
:1007C00000FFFF010000A0400000A040000000402A
:1007D00000004D4300007F43000051430000000033
:1007E000000000000000514300004D4300007F4323
:1007F0000000514300000000000000000000000065
:100800006563686F3A004572726F723A0020204D3E
:100810003230302044300020204D323030205431EE
:1008200020440020204D32303020440020446973A1
:1008300061626C65640046696C616D656E742073FD
:10084000657474696E67733A00204C002043002081
:10085000440020490020204D333031205000204CEE
:100860000020430020440020490020500020204D5B
:100870003330312045005049442073657474696EEB
:1008800067733A0020460020420020204D31343565
:1008900020533120480020460020420020204D31C6
:1008A00034352053302048004D6174657269616CA5
:1008B0002068656174757020706172616D65746522
:1008C00072733A00205A0020590020204D323036F1
:1008D000205800486F6D65206F6666736574202828
:1008E0006D6D293A00204500205A00205800204212
:1008F0000020540020204D323035205300416476D2
:10090000616E636564207661726961626C65733AD9
:1009100020533D4D696E2066656564726174652083
:10092000286D6D2F73292C20543D4D696E207472F3
:100930006176656C20666565647261746520286DFA
:100940006D2F73292C20423D6D696E696D756D2088
:100950007365676D656E742074696D6520286D73AD
:10096000292C20583D6D6178696D756D205859208E
:100970006A65726B20286D6D2F73292C20205A3DDB
:100980006D6178696D756D205A206A65726B2028DB
:100990006D6D2F73292C2020453D6D6178696D7533
:1009A0006D2045206A65726B20286D6D2F732900BC
:1009B00020540020520020204D323034205000417D
:1009C0006363656C65726174696F6E733A20503D44
:1009D0007072696E74696E672C20523D7265747214
:1009E00061637420616E6420543D74726176656C3D
:1009F00000204500205A0020590020204D3230317F
:100A00002058004D6178696D756D20416363656C98
:100A100065726174696F6E20286D6D2F7332293A8B
:100A200000204500205A0020590020204D3230334C
:100A30002058004D6178696D756D2066656564723A
:100A40006174657320286D6D2F73293A002045006D
:100A5000205A0020590020204D393220580053746C
:100A60006570732070657220756E69743A00486114
:100A70007264636F6465642044656661756C74209C
:100A800053657474696E6773204C6F6164656400AC
:100A900020746F6F206C6F6E672065787472757349
:100AA000696F6E2070726576656E74656400206390
:100AB0006F6C6420657874727573696F6E207072E4
:100AC0006576656E7465640045313A200045303ABC
:100AD00020005A3A2000593A2000583A20004D533D
:100AE000312C4D53322050696E730A00456E647389
:100AF000746F707320256320256320256320256390
:100B000000205A3A0020593A0020583A00656E6495
:100B100073746F7073206869743A200024F4D430C1
:100B200050C38E20C2A24017828B7011127A910D91
:100B3000816CD90AA861E108C7586607615143066C
:100B40001E4B5D05C145A7041A411104093D9803D8
:100B5000713931034036DB0265339102D4305402DF
:100B6000802E1D02632CEE01752AC501B028A0015C
:100B7000102781018F2564012B244B01E0223401D1
:100B8000AC211F018D200D01801FFC00841EED0093
:100B9000971DDF00B81CD200E61BC600201BBC005E
:100BA000641AB200B219A8000A19A0006A189900C4
:100BB000D117910040178B00B516840031167E00C6
:100BC000B31579003A157300C7146F0058146A0002
:100BD000EE1366008813630025135E00C7125B00E6
:100BE0006C12570015125400C111510070114F00C2
:100BF00021114B00D61049008D10470046104400CB
:100C000002104200C00F4000800F3E00420F3C0027
:100C1000060F3B00CB0E3800930E37005C0E3500FC
:100C2000270E3400F30D3200C10D3100900D30005D
:100C3000600D2E00320D2D00050D2C00D90C2B005F
:100C4000AE0C2900850C29005C0C2700350C270010
:100C50000E0C2600E80B2400C40B2400A00B23007C
:100C60007D0B23005A0B2100390B2100180B2000AB
:100C7000F80A1F00D90A1E00BB0A1E009D0A1D00AB
:100C8000800A1D00630A1C00470A1B002C0A1B0077
:100C9000110A1A00F7091A00DD091900C409190020
:100CA000AB091900920917007B09180063091700A6
:100CB0004C09160036091600200916000A0915000D
:100CC000F5081500E0081400CC081400B80814005A
:100CD000A4081400900813007D0812006B0813008C
:100CE00058081200460812003408110023081100A9
:100CF0001208110001081100F0071000E0071000B1
:100D0000D0071000C0071000B0070F00A1071000A7
:100D100091070E0083070F0074070F0065070E0090
:100D200057070E0049070E003B070D002E070E0067
:100D300020070D0013070D0006070D00F9060C0033
:100D4000ED060D00E0060C00D4060C00C8060C00F1
:100D5000BC060C00B0060C00A4060B0099060C00A3
:100D60008D060B0082060B0077060B006C060B004D
:100D700061060A0057060B004C060A0042060A00EC
:100D800038060A002E060A0024060A001A060A007F
:100D90001006090007060A00FD050900F405090010
:100DA000EB050900E2050900D9050900D005090095
:100DB000C7050900BE050900B5050800AD05080016
:100DC000A50509009C050800940508008C0508008D
:100DD000840508007C050800740508006C05070000
:100DE000650508005D050700560508004E0507006B
:100DF00047050700400508003805070031050700D2
:100E00002A050700230507001C0506001605070034
:100E10000F0507000805060002050700FB04060091
:100E2000F5040700EE040600E8040600E2040700EB
:100E3000DB040600D5040600CF040600C904060042
:100E4000C3040600BD040600B7040600B104050093
:100E5000AC040600A6040600A00405009B040600DE
:100E600095040500900406008A0405008504050029
:100E7000800406007A04050075040500700405006E
:100E80006B04050066040500610405005C040500B0
:100E900057040500520405004D04050048040500F0
:100EA000430405003E0404003A040500350405002F
:100EB000300404002C04050027040400230405006A
:100EC0001E0404001A0404001604050011040400A2
:100ED0000D040400090405000404040000040400D7
:100EE000FC030400F8030400F4030400F00304000E
:100EF000EC030400E8030400E4030400E00304003E
:100F0000DC030400D8030400D4030400D00304006D
:100F1000CC030400C8030300C503030024F404D970
:100F2000201BC40C5C0E9804C4095F0265077101A4
:100F3000F405F900FB04B30048048700C10369000D
:100F40005803550003034500BE023A0084023100F5
:100F500053022A002902250004022000E4011C009B
:100F6000C8011900AF011700980114008401130093
:100F7000710110006101100051010E0043010D00CC
:100F800036010B002B010B0020010B00150109009D
:100F90000C01090003010800FB000800F300080031
:100FA000EB000700E4000600DE000600D8000600A3
:100FB000D2000600CC000500C7000500C2000500F5
:100FC000BD000400B9000400B5000400B100040035
:100FD000AD000400A9000400A5000300A200030066
:100FE0009F0004009B00030098000300950002008E
:100FF00093000300900003008D0002008B000300AB
:1010000088000200860002008400030081000200C4
:101010007F0002007D0002007B00020079000200D8
:1010200077000100760002007400020072000100E7
:10103000710002006F0002006D0001006C000200F0
:101040006A000100690002006700010066000100FB
:1010500065000100640002006200010061000100FF
:10106000600001005F0002005D0001005C00010003
:101070005B0001005A000100590001005800010006
:101080005700010056000100550001005400010006
:101090005300000053000100520001005100010004
:1010A000500001004F0001004E0000004E00010002
:1010B0004D0001004C0001004B0000004B000100FE
:1010C0004A000100490001004800000048000100FA
:1010D00047000100460000004600010045000000F6
:1010E00045000100440001004300000043000100EE
:1010F00042000000420001004100000041000100E8
:10110000400001003F0000003F0001003E000000E1
:101110003E0001003D0000003D0001003C000000D9
:101120003C0000003C0001003B0000003B000100CF
:101130003A0000003A0001003900000039000100C7
:1011400038000000380000003800010037000000BF
:1011500037000100360000003600000036000100B4
:1011600035000000350000003500010034000000AB
:1011700034000000340001003300000033000000A0
:101180003300010032000000320000003200010094
:10119000310000003100000031000100300000008B
:1011A00030000000300001002F0000002F00000080
:1011B0002F0000002F0001002E0000002E00000074
:1011C0002E0001002D0000002D0000002D00000069
:1011D0002D0001002C0000002C0000002C0000005D
:1011E0002C0001002B0000002B0000002B00000051
:1011F0002B0001002A0000002A0000002A00000045
:101200002A00010029000000290000002900000038
:10121000290000002900010028000000280000002B
:10122000280000002800000028000100270000001E
:101230002700000027000000270000002700010011
:101240002600000026000000260000002600000006
:1012500026000100250000002500000025000000F8
:1012600025000000250000002500010024000000EA
:1012700024000000240000002400000024000100DD
:1012800023000000230000002300000023000000D2
:1012900023000000230000002300010022000000C2
:1012A00022000000220000002200000022000000B6
:1012B00022000100210000002100000021000000A8
:1012C0002100000021000000210000002100010099
:1012D000200000002000000020000000200000008E
:1012E000200000002000000020000000200001007D
:1012F0001F0000001F0000001F0000001F00000072
:101300001F0000001F0000001F0001001E00000061
:101310001E0000001E0000001E00000054686572E0
:101320006D616C2052756E61776179005448455249
:101330004D414C2052554E4157415900486561740A
:10134000696E67206661696C6564004865617469EF
:101350006E67206661696C6564004D494E54454D69
:101360005020747269676765726564004572723AED
:10137000204D494E54454D5000626564002C207349
:10138000797374656D2073746F7070656421204883
:1013900065617465725F49443A20004D4158544577
:1013A0004D5020747269676765726564004572729A
:1013B0003A204D415854454D500023646566696E8E
:1013C00065202044454641554C545F4B6420002322
:1013D000646566696E65202044454641554C545FFE
:1013E0004B69200023646566696E6520204445468C
:1013F00041554C545F4B7020005049442041757456
:101400006F74756E652066696E6973686564212006
:1014100050757420746865206C617374204B702C57
:10142000204B6920616E64204B6420636F6E73747F
:10143000616E74732066726F6D2062656C6F7720C9
:10144000696E746F20436F6E666967757261746947
:101450006F6E2E6800504944204175746F74756E2C
:1014600065206661696C6564212074696D656F75BE
:101470007400504944204175746F74756E65206620
:1014800061696C6564212054656D70657261747565
:10149000726520746F6F206869676800204B643A3A
:1014A0002000204B693A2000204B703A2000204356
:1014B0006C61737369632050494420002054753A6D
:1014C0002000204B753A2000206D61783A200020E2
:1014D0006D696E3A200020643A20002062696173D1
:1014E0003A200070012C0190012701B0012201C0B7
:1014F000011D01F00118011002130130020E0160FC
:1015000002090190020401C002FF000003FA00403A
:1015100003F5008003F000D003EB002004E6007028
:1015200004E100E004DC004005D700C005D2004023
:1015300006CD00D006C8008007C3003008BE00F00A
:1015400008B900C009B400B00AAF00B00BAA00D0BF
:101550000CA500000EA000500F9B00C0109600507C
:1015600012910000148C00C0158700B0178200B0E3
:10157000197D00D01B7800001E730040206E009083
:10158000226900F024640040275F0090295A00E09F
:101590002B5500102E500020304B0010324600E03A
:1015A00033410090353C001037370070383200A0CE
:1015B000392D00B03A2800A03B2300603C1E0010EB
:1015C0003D1900903D1400103E0F00703E0A00C00F
:1015D0003E0500003F00004D3432380020003F003F
:1015E0000920005A0059005800466C6F77203200DD
:1015F000466C6F77203200466C6F77203100466C66
:101600006F77203100466C6F7700466C6F7700462D
:10161000616E2073706565640046616E207370654D
:101620006564004E6F7A7A6C652032004E6F7A7A6C
:101630006C652032004E6F7A7A6C652031004E6FF7
:101640007A7A6C652031005370656564005370656B
:101650006564004D61696E004D6F76652058004DE0
:101660006F76652059004D6F7665205A0045787475
:101670007275646572320045787472756465723192
:1016800000457874727564657232004578747275BD
:1016900064657231004D6F7665205A004D6F766536
:1016A0002059004D6F76652058004D6F766520619A
:1016B000786973004D6F766520302E316D6D004D69
:1016C0006F766520316D6D004D6F76652031306D20
:1016D0006D00507265706172650050726568656179
:1016E0007420504C4120416C6C00507265686561FB
:1016F0007420504C4120320050726568656174203E
:10170000504C41203100507265706172650050721A
:1017100065686561742041425320416C6C005072D1
:1017200065686561742041425320320050726568DB
:1017300065617420414253203100507265706172BE
:1017400065004D38300053776974636820706F7797
:101750006572206F6E004D3831005377697463688D
:1017600020706F776572206F666600436F6F6C64E0
:101770006F776E0050726568656174204142530056
:101780005072656865617420504C41004D383400DA
:1017900044697361626C65207374657070657273FF
:1017A000004D6F7665206178697300536574206819
:1017B0006F6D65206F66667365747300473238001D
:1017C0004175746F20686F6D65004D61696E004EE4
:1017D0006F7A7A6C65004E6F7A7A6C650046616E3E
:1017E0002073706565640046616E20737065656482
:1017F0000054656D7065726174757265004E6F7A24
:101800007A6C65004E6F7A7A6C650046616E207363
:10181000706565640046616E207370656564005490
:10182000656D70657261747572650050726568658A
:1018300061742041425320636F6E66005072656888
:1018400065617420504C4120636F6E6600504944BE
:101850002D43005049442D43005049442D4400502D
:1018600049442D44005049442D49005049442D49D4
:10187000005049442D50005049442D50002008206C
:1018800046616374002008204661637400200820CC
:101890004D6178002008204D6178002008204D69B6
:1018A0006E002008204D696E004175746F74656D7F
:1018B00070004F6666004F6E200046616E207370A8
:1018C0006565640046616E207370656564004E6FE7
:1018D0007A7A6C652032004E6F7A7A6C652032001D
:1018E0004E6F7A7A6C652031004E6F7A7A6C652083
:1018F0003100436F6E74726F6C0045737465707362
:101900002F6D6D004573746570732F6D6D005A7384
:10191000746570732F6D6D005A73746570732F6DDD
:101920006D005973746570732F6D6D005973746514
:1019300070732F6D6D005873746570732F6D6D002B
:101940005873746570732F6D6D00412D74726176DC
:10195000656C00412D74726176656C00412D726575
:10196000747261637400412D7265747261637400F6
:10197000416D6178204500416D6178204500416DE1
:101980006178205A00416D6178205A00416D61787C
:10199000205900416D6178205900416D61782058CF
:1019A00000416D61782058005654726176206D694F
:1019B0006E005654726176206D696E00566D696EC8
:1019C00000566D696E00566D6178204500566D6158
:1019D00078204500566D6178205A00566D61782058
:1019E0005A00566D6178205900566D617820590073
:1019F000566D6178205800566D6178205800566504
:101A00002D6A65726B0056652D6A65726B00567A99
:101A10002D6A65726B00567A2D6A65726B00567876
:101A2000792D6A65726B005678792D6A65726B0044
:101A3000416363656C00416363656C00436F6E7462
:101A4000726F6C0046696C2E204469612E20320052
:101A500046696C2E204469612E20320046696C2E46
:101A6000204469612E20310046696C2E2044696152
:101A70002E2031004520696E206D6D33004F666663
:101A8000004F6E2000436F6E74726F6C005265736E
:101A9000746F7265206661696C7361666500466982
:101AA0006C616D656E74004D6F74696F6E00546586
:101AB0006D7065726174757265004D61696E004389
:101AC0006F6E74726F6C0050726570617265005455
:101AD000756E6500496E666F2073637265656E0092
:101AE00000060900FE070192032120FFFF08FF07FF
:101AF000FF0000000600000107070602008080804A
:101B000080800080030202060105A0A005070706E9
:101B100000005050F850F85050050707060000200C
:101B200078A07028F020050707060000C0C8102024
:101B30004098180507070600006090A040A890682C
:101B4000020303060104C0408003070706010020CA
:101B5000408080804020030707060100804020204D
:101B600020408005050506000120A870A820050575
:101B7000050600012020F820200203030602FFC012
:101B80004080050101060003F8020202060200C0BF
:101B9000C00505050600010810204080050707065E
:101BA0000000708888888888700307070601004055
:101BB000C040404040E005070706000070880870FC
:101BC0008080F8050707060000F81020100808F0CC
:101BD00005070706000010305090F81010050707A1
:101BE000060000F880F00808887005070706000066
:101BF000708080F0888870050707060000F80810DC
:101C0000202020200507070600007088887088883B
:101C100070050707060000708888780808700205BC
:101C200005060200C0C000C0C00206060602FFC0D2
:101C3000C000C0408004070706000010204080401C
:101C40002010050303060002F800F8040707060148
:101C500000804020102040800507070600007088A3
:101C6000081020002005070706000070880868A8F3
:101C7000A870050707060000708888F8888888051E
:101C80000707060000F08888F08888F00507070637
:101C9000000070888080808870050707060000F0CB
:101CA0008888888888F0050707060000F88080F09B
:101CB0008080F8050707060000F88080F0808080AB
:101CC000050707060000708880B888887005070738
:101CD000060000888888F8888888010707060200BF
:101CE0008080808080808005070706000038101003
:101CF000101090600507070600008890A0C0A09013
:101D000088050707060000808080808080F805072E
:101D10000706000088D8A888888888050707060075
:101D2000008888C8A898888805070706000070887A
:101D30008888888870050707060000F08888F0808A
:101D4000808005070706000070888888A8906805CD
:101D50000707060000F08888F0A0908805070706AE
:101D60000000788080700808F0050707060000F87A
:101D7000202020202020050707060000888888886A
:101D800088887005070706000088888888885020A2
:101D90000507070600008888888888A85005070777
:101DA0000600008888502050888805070706000034
:101DB00088888850202020050707060000F80810B2
:101DC000204080F8030707060100E08080808080C3
:101DD000E0050505060001804020100803070706FE
:101DE0000100E02020202020E0050303060004205D
:101DF0005088050101060000F80202020602058073
:101E00004005050506000070087888780507070674
:101E100000008080B0C88888F005050506000070C5
:101E20008080887005070706000008086898888881
:101E3000780505050600007088F88070050707061C
:101E400000003048E0404040400506060600FF70B4
:101E500088887808700507070600008080B0C88869
:101E60008888010707060200800080808080800348
:101E700008080601FF200020202020A040040707BA
:101E8000060000808090A0C0A09003070706010014
:101E9000C04040404040E0050505060000D0A8A82D
:101EA000A8A8050505060000B0C8888888050505AE
:101EB00006000070888888700506060600FFF08816
:101EC00088F080800506060600FF78888878080874
:101ED000050505060000B0C88080800505050600E0
:101EE0000070807008F00407070600004040E040E2
:101EF000404030050505060000888888986805057B
:101F00000506000088888850200505050600008821
:101F100088A8A850050505060000885020508805AF
:101F200006060600FF888888780870050505060003
:101F300000F8102040F80307070601002040408009
:101F4000404020010707060200808080808080805A
:101F50000307070601008040402040408005020240
:101F60000600026890000000060000000000060065
:101F70000000000006000000000006000000000055
:101F8000060000000000060000000000060000003F
:101F9000000006000000000006000000000006002F
:101FA0000000000006000000000006000000000025
:101FB000060000000000060000000000060000000F
:101FC00000000600000000000600000000000600FF
:101FD00000000000060000000000060000000000F5
:101FE00006000000000006000000000006000000DF
:101FF00000000600000000000600000000000600CF
:1020000000000000060000000000060000000000C4
:1020100006000000000006000000000006000000AE
:10202000000006000000000006000000000006009E
:10203000000107070602008000808080808005077D
:10204000070600002070A8A0A8702005070706005A
:1020500000304040E04050A80505050600008870AB
:10206000507088050707060000885020F820F820E7
:102070000107070602008080800080808005080834
:1020800006000030482050502090600301010601F6
:1020900007A0050707060000F888B8B8B888F80553
:1020A0000707060001700878887800F8050505061E
:1020B00000012850A05028050303060001F8080875
:1020C0000202020602064080050707060000F888A3
:1020D000A88898A8F8050101060006F8040404067B
:1020E0000003609090600507070600002020F8209C
:1020F0002000F804050506000360902040F0030569
:1021000005060003E020E020E0020202060206408D
:10211000800508080600FF8888888898E880800580
:102120000707060000789898781818180202020627
:102130000202C0C00202020602FF4080030505063B
:10214000000340C04040E005070706000170888892
:10215000887000F8050505060001A0502850A0056C
:1021600007070600008890A858B808080507070662
:1021700000008890B848982038050808060000C07C
:1021800040C048D83808080507070600002000208E
:10219000408088700508080600004020007088F81C
:1021A00088880508080600001020007088F88888D4
:1021B0000508080600002050007088F88888050887
:1021C000080600006890007088F8888805080806EE
:1021D00000005000708888F888880508080600000C
:1021E0002050207088F888880507070600003860AE
:1021F000A0B8E0A0B80508080600FF7088808088B5
:10220000702060050808060000402000F880F0807B
:10221000F8050808060000081000F880F080F805AE
:102220000808060000205000F880F080F805070735
:102230000600005000F880F080F80308080601004E
:10224000804000E0404040E00308080601002040D4
:1022500000E0404040E003080806010040A000E024
:10226000404040E0030707060100A000E040404076
:10227000E0050707060000704848E8484870050870
:102280000806000068900088C8A898880508080615
:1022900000004020708888888870050808060000C3
:1022A0001020708888888870050808060000205073
:1022B0000070888888700508080600006890007023
:1022C0008888887005080806000050007088888893
:1022D000887005050506000188502050880508080B
:1022E0000600FF1070A8A8A8A870400508080600FE
:1022F000004020888888888870050808060000103B
:10230000208888888888700508080600002050000A
:10231000888888887005080806000050008888882A
:1023200088887005080806000010208850202020AA
:10233000200509090600FFC040704848704040E091
:102340000408080601FF609090A09090E0800508C6
:102350000806000040200070087888780508080604
:102360000000102000700878887805080806000032
:1023700020500070087888780508080600006890EA
:10238000007008788878050707060000500070087C
:1023900078887805080806000020502070087888A2
:1023A00078050606060000D02878A0A85005060685
:1023B0000600FF7080887020600508080600004055
:1023C00020007088F88070050808060000102000C2
:1023D0007088F8807005080806000020500070889A
:1023E000F8807005070706000050007088F88070BC
:1023F00003080806010080400040C04040E0030898
:102400000806010020400040C04040E003080806E4
:10241000010040A00040C04040E003070706010063
:10242000A00040C04040E0050707060000A040A013
:1024300010788870050808060000689000B0C88809
:102440008888050808060000402000708888887089
:1024500005080806000010200070888888700508AC
:10246000080600002050007088888870050808065B
:1024700000006890007088888870050707060000D3
:10248000500070888888700505050600012000F856
:1024900000200507070600FF1070A8A8A8704005D7
:1024A0000808060000402000888888986805080809
:1024B0000600001020008888889868050808060033
:1024C000002050008888889868050707060000509B
:1024D0000088888898680509090600FF1020008890
:1024E0008888F808700407070601FFC04060506044
:1024F00040E00508080600FF5000888888780870CA
:1025000000060900FE000000000001090008FE00AE
:102510000005080806000040F0C888889878100573
:102520000808060000C0F88888888888F80505052E
:102530000600012030F83020050808060000207051
:10254000F820202020E00509090600FF2070A8A837
:10255000B8888870200509090600FFE080C0B0A88F
:10256000283028280509090600FFF8A888888888E7
:1025700088A8F8050A0A0600FE205050505088A886
:10258000A8887003030306000340A0400000000079
:1025900000000000000000007FFFE00000000000DD
:1025A000000000000000007000E0000000000000DB
:1025B00000000000000061F8600000000000000062
:1025C000000000000041F8200000000000000000B2
:1025D0000000000040F020000000000000000000AB
:1025E000000000406020000000000000000000002B
:1025F00000005801A07F80003FC00000000041049F
:10260000005C63A0FBC00079E000000000208200B5
:102610005EF7A0F3C00076E0000000002082005EBC
:10262000F7A0EBC0007EE0000000004104005C6306
:10263000A07B80003DC0000000008208005801A07F
:102640007B80003BC000000001041000406020FBC4
:10265000C00077E00000000104100040F020FBC043
:102660000070E00000000082080041F820FFC00078
:102670007FE00000000041040061F8603F00001F9F
:1026800080000000000000007000E01E00000F004D
:1026900000000001FFFF807FFFE00C00000600004B
:1026A000000001FFFF8000000000000000000000AB
:1026B00000000000007FFFE00000000000000000BC
:1026C000000000007000E0000000000000000000BA
:1026D000000000630C60000000000000000000002B
:1026E0000000470E20000000000000000000000075
:1026F000004F0F200000000000000000000000005C
:102700005F0FA00000000000000000000000005E5D
:1027100007A07F80003FC00000000041040040602F
:1027200020FBC00079E00000000020820040F02083
:10273000F3C00076E00000000020820040F020EBB3
:10274000C0007EE0000000004104004060207B806B
:10275000003DC0000000008208005E07A07B8000F2
:102760003BC0000000010410005F0FA0FBC0007719
:10277000E0000000010410004F0F20FBC00070E0DB
:1027800000000000820800470E20FFC0007FE0002C
:10279000000000410400630C603F00001F80000047
:1027A00000000000007000E01E00000F00000000AC
:1027B00001FFFF807FFFE00C000006000000000129
:1027C000FFFF800000001FFFFFFFFFFFFF60000012
:1027D000000001FF400000000000FF80000000003A
:1027E000007F83CF00000C303F87FF80000C301F3C
:1027F000867980000C000F8C30C7838C30E78C30DA
:10280000CFC7CC31F38C30DCECEC33B98C30D86CE6
:102810006C33198C30D06C0C33198C30D86C0C3371
:10282000198C30DC6C0E3B198C30CF7C079F198CD7
:1028300030C77C038F1940000000000002600000D8
:10284000000000061FFFFFFFFFFFF800000A0B0259
:10285000090C0D0E08070304010000000000000031
:102860000000000000000000000000000000000068
:102870000000000000000012111000000000000025
:102880000000000000000000000000000000000048
:102890000001021020200808102040102040800273
:1028A0000102010804020101020408102040808096
:1028B000402010080402018004020180402010081A
:1028C00004020108040201010204081020408001F2
:1028D00002040810204080050505050705080808C2
:1028E00008020202020A0A080804040404010101A1
:1028F00001010101010303030303030303040707A9
:10290000070C0C0C0C0C0C0C0C0202020206060646
:1029100006060606060B0B0B0B0B0B0B0B00002021
:10292000002300260029002C002F003200000100A7
:102930000003010601090100002200250028002BE8
:10294000002E003100340002010000050108010BD7
:102950000100002100240027002A002D0030003350
:102960000001010000040107010A014E414E494ED9
:10297000495459494E46CDCCCC3D0AD7233C17B7D4
:10298000D13877CC2B329595E6241FB14F0A000041
:1029900020410000C84200401C4620BCBE4CCA1B5F
:1029A0000E5AAEC59D74C939B59B11241FBECFEF19
:1029B000D1E2DEBFCDBF00E00CBF14E0A0E0B2E08A
:1029C000E6E9FEE501E00BBF02C007900D92A634D8
:1029D000B107D9F721E1A6E4B4E001C01D92A23607
:1029E000B207E1F719E2CAEAD9E200E006C022978D
:1029F0000109FE010BBF0E9474A9C63AD10780E00D
:102A00000807A9F70E9452A40C9449AF0C94000047
:102A10001F920F920FB60F9211240BB60F922F93A5
:102A20003F938F939F93EF93FF932091C6009FB79F
:102A3000F894E091C70481E08E0F8F773091C8043D
:102A4000831731F0F0E0E95BFB4F20838093C704EC
:102A50009FBFFF91EF919F918F913F912F910F9089
:102A60000BBE0F900FBE0F901F9018959A01AB01EF
:102A7000211581EE38074105510549F182E0809327
:102A8000C00060E079E08DE390E00E942DA9215024
:102A9000310941095109CA01B90122E030E040E0A1
:102AA00050E00E942DA93093C5002093C40080916E
:102AB000C10080618093C1008091C10088608093D3
:102AC000C1008091C10080688093C1000895109278
:102AD000C00020E130E0E7CF3FB7F8942091C80470
:102AE0008091C704821759F0E22FF0E0E95BFB4FB9
:102AF000808190E02F5F2F772093C80402C08FEF72
:102B00009FEF3FBF08958FB7F8949091C8049093BA
:102B1000C7048FBF08954F925F926F927F928F92FA
:102B20009F92AF92BF92CF92DF92EF92FF920F935C
:102B30001F93CF93DF93CDB7DEB7A0970FB6F8946E
:102B4000DEBF0FBECDBF5C014115510561057105AA
:102B5000E9F420E030E040E350E060E070E0A0966F
:102B60000FB6F894DEBF0FBECDBFDF91CF911F919E
:102B70000F91FF90EF90DF90CF90BF90AF909F901C
:102B80008F907F906F905F904F905BC08E010F5F32
:102B90001F4FC12CD12C76014801422E512C612CA3
:102BA000712C8FEFC81AD80AE80AF80ACB01BA01CB
:102BB000A30192010E940BA9CA01F80161938F0140
:102BC000A901BC01411551056105710551F7F1E0FD
:102BD000CF1AD108E108F108F401EC0DFD1D808148
:102BE0008A3010F440E301C047E3480F552747FD02
:102BF0005095652F752F20E030E0C50122D081E08F
:102C0000C81AD108E108F108EFEFCE16DE06EE068D
:102C1000FE0611F7A0960FB6F894DEBF0FBECDBF2B
:102C2000DF91CF911F910F91FF90EF90DF90CF90A8
:102C3000BF90AF909F908F907F906F905F904F90DC
:102C400008952115310539F48091C00085FFFCCF2E
:102C50004093C60008952A30310509F41CC05BCFAB
:102C6000CF93DF93EC0120E030E04DE050E060E0F6
:102C700070E0E7DF20E030E04AE050E060E070E044
:102C8000CE01DF91CF91DDCF9A01AB01662757FDD1
:102C90006095762FD6CFCF92DF92EF92FF92CF93AF
:102CA000DF93EC016A017B0177FF0FC020E030E089
:102CB0004DE250E060E070E0C4DFF094E094D09426
:102CC000C094C11CD11CE11CF11C2AE0B701A60173
:102CD000CE01DF91CF91FF90EF90DF90CF901BCF8F
:102CE0002115310539F48091C00085FFFCCF409358
:102CF000C600089510CF9A01462F50E060E070E0C2
:102D0000EFCFCF93DF93EC019A01AB0160E070E06D
:102D1000E7DFCE01DF91CF91A3CF8F929F92AF9249
:102D2000BF92CF92DF92EF92FF921F93CF93DF93E8
:102D3000EC016A017B01122F20E030E0A901C701FC
:102D4000B6010E943AA587FF0CC020E030E04DE2BA
:102D500050E060E070E0CE0174DFF7FAF094F7F82D
:102D6000F094B12C60E070E080E09FE3B11641F098
:102D700020E030E040E251E40E9441A5B394F6CF58
:102D80009B01AC01C701B6010E9461A46B017C01EB
:102D90000E94AEA54B015C010E94DAA59B01AC012B
:102DA000C701B6010E9460A46B017C012AE0B50155
:102DB000A401CE01B0DE112341F020E030E04EE26C
:102DC00050E060E070E0CE013CDF112319F120E01B
:102DD00030E040E251E4C701B6010E940FA86B0148
:102DE0007C010E94A9A54B01AA2497FCA094BA2CAF
:102DF000B501A401CE014FDFC501B4010E94DCA5DD
:102E00009B01AC01C701B6010E9460A46B017C016B
:102E10001150DBCFDF91CF911F91FF90EF90DF90AA
:102E2000CF90BF90AF909F908F90089576CFFC0188
:102E300065917591859194910895CF92DF92EF926B
:102E4000FF920F931F93CF93DF93EC01CC0FDD1F05
:102E5000CC0FDD1FFE01EE59FA4FDE01A259BA4F29
:102E60002D913D914D915C91608171818281938121
:102E70000E9461A46B017C01CE018C50984FD7DF7A
:102E80008E010A5A1A4FA70196010E9461A4F80107
:102E90006083718382839383CE018851984FC7DF0B
:102EA000CD5DDD4FA70196010E9461A468837983FF
:102EB0008A839B83DF91CF911F910F91FF90EF90B9
:102EC000DF90CF9008950E94AEA160934705709364
:102ED00048058093490590934A050895FC01249183
:102EE000222341F03091C00035FFFCCF2093C60073
:102EF0000196F4CF4AE050E086E494E0C5CEFC01B0
:102F00002491222341F03091C00035FFFCCF209363
:102F1000C6000196F4CF22E030E086E494E086CF4C
:102F2000FC012491222341F03091C00035FFFCCFF9
:102F30002093C6000196F4CF2AE030E086E494E0C6
:102F4000CFCECF93DF931F921F92CDB7DEB7809184
:102F50005C1190915D119E012F5F3F4F009719F416
:102F60002256314102C0281B390B3A8329838981BB
:102F70009A810F900F90DF91CF910895FF920F9358
:102F80001F93CF93DF93F62EFC0120812B3369F141
:102F900000910107109102070430110534F5C0912A
:102FA0000307D091040740E64C9F90014D9F300DE0
:102FB0001124BC01C9018F579A4F0E946EACFE01CB
:102FC000EE5CFA4FF082CE01019664E070E00E9460
:102FD000F8A890930407809303070F5F1F4F109387
:102FE00002070093010781E001C080E0DF91CF91EB
:102FF0001F910F91FF900895CF93DF93D82FC92F82
:10300000BDDF882309F43CC0E0E0F8E08491882328
:1030100041F09091C00095FFFCCF8093C60031969F
:10302000F5CFE4EBF7E08491882341F09091C00064
:1030300095FFFCCF8093C6003196F5CFED2FFC2F86
:103040008191882339F09091C00095FFFCCF809347
:10305000C600F6CFE2EBF7E08491882341F090912F
:10306000C00095FFFCCF8093C6003196F5CF8091CC
:10307000C00085FFFCCF8AE08093C60081E001C0DC
:1030800080E0DF91CF910895DF92EF92FF920F934E
:103090001F93CF93DF93CDB7DEB76E970FB6F8943B
:1030A000DEBF0FBECDBF60914B0570914C05611521
:1030B000710559F14DE150E08E010F5F1F4FC801BE
:1030C0000E9431AC1E8EF8017F01E01AF10AD19006
:1030D000DD2019F08AE0D812F7CFF801EE0DFF1DC0
:1030E000108260E0C80188DF882379F0DD20B1F02C
:1030F0008FEFE81AF80A80914B0590914C058E0DE0
:103100009F1D90934C0580934B0581E020914B05CA
:1031100030914C05232B39F480E005C010924C050A
:1031200010924B05F2CF6E960FB6F894DEBF0FBE2D
:10313000CDBFDF91CF911F910F91FF90EF90DF9066
:10314000089590934C0580934B059ECF6F98779A86
:1031500008959D9AA5980895F9DFFBDF40E052ECB1
:1031600061E070E086E494E081DCECEAF7E08491D1
:10317000882341F09091C00095FFFCCF8093C6005A
:103180003196F5CF8091C00085FFFCCF8AE0809317
:10319000C600E0E0F8E08491882341F09091C000FF
:1031A00095FFFCCF8093C6003196F5CF84B780FFA2
:1031B00014C0E4EAF7E09491992341F02091C00013
:1031C00025FFFCCF9093C6003196F5CF9091C000BB
:1031D00095FFFCCF9AE09093C60081FF14C0E4E90C
:1031E000F7E09491992341F02091C00025FFFCCF96
:1031F0009093C6003196F5CF9091C00095FFFCCF1B
:103200009AE09093C60082FF14C0E3E8F7E094913F
:10321000992341F02091C00025FFFCCF9093C60078
:103220003196F5CF9091C00095FFFCCF9AE0909336
:10323000C60083FF14C0E3E7F7E09491992341F0BF
:103240002091C00025FFFCCF9093C6003196F5CFAA
:103250009091C00095FFFCCF9AE09093C60085FF47
:1032600014C0E3E6F7E08491882341F09091C00018
:1032700095FFFCCF8093C6003196F5CF8091C000BA
:1032800085FFFCCF8AE08093C60014BEECE5F7E032
:103290008491882341F09091C00095FFFCCF8093EA
:1032A000C6003196F5CFE1E5F7E08491882341F03F
:1032B0009091C00095FFFCCF8093C6003196F5CF6A
:1032C0008091C00085FFFCCF8AE08093C600E0E0DB
:1032D000F8E08491882341F09091C00095FFFCCFE5
:1032E0008093C6003196F5CFE1E4F7E0849188231E
:1032F00041F09091C00095FFFCCF8093C6003196BD
:10330000F5CFE0E3F7E08491882341F09091C0008D
:1033100095FFFCCF8093C6003196F5CFE4E2F7E04D
:103320008491882341F09091C00095FFFCCF809359
:10333000C6003196F5CFEDE0F7E08491882341F0A7
:103340009091C00095FFFCCF8093C6003196F5CFD9
:103350008091C00085FFFCCF8AE08093C600E2E048
:10336000F7E08491882341F09091C00095FFFCCF55
:103370008093C6003196F5CFE6EFF6E0849188237E
:1033800041F09091C00095FFFCCF8093C60031962C
:10339000F5CF8091C00085FFFCCF8AE08093C60006
:1033A000E0E0F8E08491882341F09091C00095FF1F
:1033B000FCCF8093C6003196F5CFE7EEF6E084911E
:1033C000882341F09091C00095FFFCCF8093C60008
:1033D0003196F5CFB6DD4AE050E0BC0186E494E0DA
:1033E00053DCE0EDF6E08491882341F09091C00039
:1033F00095FFFCCF8093C6003196F5CF4AE050E0B0
:1034000060ED74E086E494E03FDC8091C00085FFCD
:10341000FCCF8AE08093C60081E0809332058093E0
:10342000330580933405809335050E94D73980E0B9
:103430000E945C3B0E94F37C0E94985F0E94824342
:103440000E94BA9B0C942F5A0F931F93CF93DF9334
:1034500000914D0510914E0565E470E0C8010E9491
:103460005AACEC01C8010196209761F0188260E027
:1034700070E00E9478A925E42883DF91CF911F9105
:103480000F91089560E070E0DF91CF911F910F914F
:103490000C9478A980914D0590914E054AE050E03A
:1034A00060E070E001960C94E0AA80914D05909147
:1034B0004E054AE050E060E070E001960E94E0AA0C
:1034C000CB010895682F772767FD709580910707D6
:1034D000909108070E945AAC90934E0580934D0539
:1034E00021E0892B09F420E0822F08950F931F9388
:1034F000CF93DF938C0184E5E5DF882361F1D5DF8D
:10350000EC01823091054CF1E0E0F8E084918823F1
:1035100041F09091C00095FFFCCF8093C60031969A
:10352000F5CF8091C00085FFFCCF8DE48093C6006D
:103530004AE050E0B80186E494E0A6DBBE0189E8E9
:1035400095E0CCDC8091C00085FFFCCF8AE08093C1
:10355000C60081E005C0809153058093360580E068
:10356000DF91CF911F910F9108950F931F93CF93E8
:10357000DF9300D000D0CDB7DEB726E0ECECF2E070
:10358000DE01119601900D922A95E1F7FC01EE0FF4
:10359000FF1F21E030E02C0F3D1FE20FF31F608181
:1035A0007181161617061CF1E0E0F8E02491222341
:1035B00041F03091C00035FFFCCF2093C60031961A
:1035C000F5CFE7EFF4E02491222341F03091C000E1
:1035D00035FFFCCF2093C6003196F5CF2091C00077
:1035E00025FFFCCF2AE02093C6006AE070E08C0142
:1035F000000F111F000F111F0B541C4F882777FD60
:103600008095982F0E94DCA59B01AC01F801608198
:103610007181828193810E9441A5609345027093DC
:103620004602809347029093480226960FB6F8947C
:10363000DEBF0FBECDBFDF91CF911F910F910895D7
:10364000CF92EF92FF920F931F9320E030E040E77C
:1036500052E40E9441A5C09053057B018C0125E2F4
:1036600037E041E257E06DE177E089E197E00E94C1
:10367000F8441F910F91FF90EF90CF9008956091C3
:103680004502709146028091470290914802D8CF3E
:1036900025E337E041E357E06DE277E089E297E028
:1036A0000C941D4F4F925F926F927F928F929F92D8
:1036B000AF92BF92CF92DF92EF92FF920F931F9340
:1036C000CF93DF938C01FC01EF53F84FF490EC01A2
:1036D000CC0FDD1FCC0FDD1FCE01875D984F5C0145
:1036E000FC011082118212821382D2DFCE0180533C
:1036F000984F9DDB2B013C016F2D772767FD70955F
:10370000872F972F0E94DCA56B017C01CE01875E7D
:10371000984F4C0120E030E040EC5FE3C301B20180
:103720000E940FA8A70196010E940FA8F4016083D0
:10373000718382839383FE01EB54FC4F80819181DE
:10374000A281B3818093450290934602A0934702E1
:10375000B093480294DF0E947D58F50110821182D7
:103760001282138295DF80E00E945450CE018C5368
:10377000984F3C015CDB9058A70196010E940FA86E
:10378000F401608371838283938379DF0E947D5883
:1037900081E00E945450C801E8DEC30148DB9B0170
:1037A000AC010E9461A4A70196010E940FA8F40138
:1037B000608371838283938362DF0E947D58FE0160
:1037C000E259FA4F1082118212821382CE01845282
:1037D000984F2DDBCE59DA4F288139814A815B81A0
:1037E0000E9461A4F5016083718382839383C80181
:1037F00024DB4EDFF50180819181A281B381F40148
:1038000080839183A283B383109245021092460273
:1038100010924702109248020E945C50F801EA5E42
:10382000F84F81E08083F801ED5EF84F8083DF91EF
:10383000CF911F910F91FF90EF90DF90CF90BF90AD
:10384000AF909F908F907F906F905F904F90089572
:1038500080E1E9E1F7E0A9E2B7E001900D928A95F5
:10386000E1F7089580E1E9E2F7E0A9E1B7E001902E
:103870000D928A95E1F70895CF92DF92EF92FF9231
:103880000F931F93CF93DF9341EBE42E43E0F42E8D
:1038900009E117E0C9E2D7E05DE7C52E55E0D52E76
:1038A000F70181917F010EDE8823C9F0CDDDF6019D
:1038B0002081211104C020915205222329F0288162
:1038C00039814A815B8103C020E030E0A9010E9478
:1038D00061A4F801608371838283938309C0888126
:1038E0009981AA81BB81F80180839183A283B383EC
:1038F0000C5F1F4F2496FFEFCF1ADF0A85EBE81607
:1039000083E0F80669F686E4DDDD882391F09CDD2E
:103910006B017C0120E030E0A9010E943DA7181650
:1039200044F4C0924502D0924602E0924702F092DF
:103930004802DF91CF911F910F91FF90EF90DF90A0
:10394000CF900895E0E0F8E08491882341F09091D1
:10395000C00095FFFCCF8093C6003196F5CFE6E717
:10396000F5E08491882341F09091C00095FFFCCF51
:103970008093C6003196F5CFE0910907F0910A07D0
:103980008191882339F09091C00095FFFCCF8093FE
:10399000C600F6CFE3E7F5E08491882341F09091EB
:1039A000C00095FFFCCF8093C6003196F5CF0895F7
:1039B000CF92DF92EF92FF920E94AEA16B017C0149
:1039C00080910A02882309F483C020913005309148
:1039D00031052115310509F47BC080912C059091AA
:1039E0002D05A0912E05B0912F05B701A601481B0A
:1039F000590B6A0B7B0B77FD7EC02330310579F0C4
:103A00003CF4213031050CF463C0E0E0F8E011C073
:103A10002430310509F05CC0E0E0F8E042C0E0E0AD
:103A2000F8E023C09091C00095FFFCCF8093C600C2
:103A3000319684918111F6CFE2E6F5E084918823F6
:103A400041F09091C00095FFFCCF8093C600319665
:103A5000F5CF8091C00085FFFCCF37C09091C000AA
:103A600095FFFCCF8093C600319684918111F6CFEB
:103A7000ECE4F5E08491882341F09091C00095FF3B
:103A8000FCCF8093C6003196F5CF8091C00085FFB2
:103A9000FCCF1BC09091C00095FFFCCF8093C60067
:103AA000319684918111F6CFE5E3F5E08491882386
:103AB00041F09091C00095FFFCCF8093C6003196F5
:103AC000F5CF8091C00085FFFCCF8AE08093C600CF
:103AD00020910A0230E0A8EEB3E00E944FA96C0DDD
:103AE0007D1D8E1D9F1D60932C0570932D05809369
:103AF0002E0590932F05FF90EF90DF90CF900895C3
:103B00008F929F92AF92BF92CF92DF92EF92FF92ED
:103B10000F931F93CF93DF9300D01F92CDB7DEB7E3
:103B200085E4D0DCB82E811102C00E947D5861EB83
:103B3000C62E63E0D62E7EE6E72E75E0F72E09E26C
:103B400017E0812C912CA12CF60181916F01BADC38
:103B5000882359F1F80120813181428153812983E1
:103B60003A834B835C8370DCF801608371838283CA
:103B7000938329813A814B815C81F3E08F16910414
:103B8000A1F00E9460A49B01AC01F70160817181EA
:103B9000828193810E9461A4F70160837183828393
:103BA0009383C4014AD9AA24A394FFEF8F1A9F0AD2
:103BB00084E0E80EF11C0C5F1F4FE4E08E169104C8
:103BC00009F0C2CFAA2089F00F900F900F900F90AC
:103BD000DF91CF911F910F91FF90EF90DF90CF90E9
:103BE000BF90AF909F908F9053CDBB20A1F085E305
:103BF00097E00F900F900F900F90DF91CF911F9152
:103C00000F91FF90EF90DF90CF90BF90AF909F907B
:103C10008F900C94E84F0F900F900F900F90DF91C2
:103C2000CF911F910F91FF90EF90DF90CF90BF90B9
:103C3000AF909F908F900895EF92FF920F931F93F4
:103C4000CF93DF93CDB7DEB76E970FB6F894DEBF94
:103C50000FBECDBF87E395E00E94A05BBC0180E072
:103C600090E02CE330E040E050E00E940BA97F930D
:103C70006F933F932F9387EB94E09F938F938E01E5
:103C80000F5F1F4F1F930F930E9484AC0FB6F894E1
:103C9000DEBF0FBECDBFE0E0F8E08491882341F0A5
:103CA0009091C00095FFFCCF8093C6003196F5CF70
:103CB000F8018191882339F09091C00095FFFCCFE5
:103CC0008093C600F6CF8091C00085FFFCCF8AE0CC
:103CD0008093C60060E0C8010E945D7C80913A0C30
:103CE000882329F110923A0CE0905305F12C8701BA
:103CF000000F111F0658114FF8016081718188274C
:103D000077FD8095982F0E94DCA520914E0230917E
:103D10004F0240915002509151020E943DA7181647
:103D200034F4F80111821082C7010E9484606E96FB
:103D30000FB6F894DEBF0FBECDBFDF91CF911F91BC
:103D40000F91FF90EF9008950F931F93CF93DF9300
:103D500083E5B8DB882371F1A8DB8C018F3F9105E7
:103D600009F040F580E5AEDB882329F09EDBEC010D
:103D700097FD20C002C0CDE0D0E0E1E7F3E0819103
:103D80009191C817D907B1F083E0E13BF807B9F783
:103D900061E08C2F0E948CA3602F8C2F0E94C5A302
:103DA000B8018C2F0E9476A2289721F41093550514
:103DB00000935405DF91CF911F910F910895CF92F9
:103DC000DF92EF92FF920F931F93CF93DF9388E6DA
:103DD00090E08CDB811152C080913D0783FD4EC085
:103DE00083E570DB882309F449C02EDB6B017C017D
:103DF0000091360510E0E801CC0FDD1FC658D14F09
:103E00000E94A9A579836883C8010E94846020E08C
:103E100030E04AEA52E4C701B6010E943AA51816FA
:103E200054F087E395E00E947A5B60E085EA94E0D5
:103E30000E94707C04C087E395E00E94C75BE0911C
:103E4000360584E0E89FF0011124E05AF14F20810B
:103E5000318142815381C701B6010E943DA71816E6
:103E60006CF460E08AE994E0DF91CF911F910F91AB
:103E7000FF90EF90DF90CF900C94707CDF91CF910A
:103E80001F910F91FF90EF90DF90CF900895DF92F8
:103E9000EF92FF920F931F93CF93DF93E1E3F5E04F
:103EA0008491882341F09091C00095FFFCCF8093CE
:103EB000C6003196F5CFE091360584E0E89FF00129
:103EC0001124E05AF14F408151816281738121E0D8
:103ED00030E086E494E00E941617EEE2F5E084916B
:103EE000882341F09091C00095FFFCCF8093C600DD
:103EF0003196F5CFE0913605F0E0EE0FFF1FE65862
:103F0000F14F60817181882777FD8095982F0E94FD
:103F1000DCA5AB01BC0121E030E086E494E00E9426
:103F200016170AE71EE0B0E6EB2EBEE0FB2EC0E05F
:103F3000D0E08AE3D82EEBE2F5E08491882341F0CB
:103F40009091C00095FFFCCF8093C6003196F5CFCD
:103F50004AE050E0BE0186E494E00E94441680915D
:103F6000C00085FFFCCFD092C600F701419151916E
:103F7000619171917F0121E030E086E494E00E943C
:103F80001617E8E2F5E08491882341F09091C00093
:103F900095FFFCCF8093C6003196F5CFF801619173
:103FA00071918F01882777FD8095982F0E94DCA55D
:103FB000AB01BC0121E030E086E494E00E941617DA
:103FC0002196C230D10509F0B6CFE4E2F5E0849144
:103FD000882341F09091C00095FFFCCF8093C600EC
:103FE0003196F5CF8091360590E00E943C5D4AE025
:103FF00050E0BC0186E494E00E944416C0E0D0E0AA
:104000001AE3E1E2F5E08491882341F09091C00049
:1040100095FFFCCF8093C6003196F5CF4AE050E083
:10402000BE0186E494E00E9444168091C00085FFA2
:10403000FCCF1093C600CE010E943C5D4AE050E0E8
:10404000BC0186E494E00E9444162196C230D1055A
:10405000C1F6DF91CF911F910F91FF90EF90DF900C
:10406000089589E690E042DA811115C0ECE4F4E0AD
:104070008491882341F09091C00095FFFCCF8093FC
:10408000C6003196F5CF03DF8091C00085FFFCCFDD
:104090008AE08093C600089583E514DA882311F03E
:1040A00004DA01C080E080933D07E0E0F8E084910D
:1040B000882341F09091C00095FFFCCF8093C6000B
:1040C0003196F5CFE3E9F4E08491882341F09091B3
:1040D000C00095FFFCCF8093C6003196F5CF80914C
:1040E0003D07811103C0E5E8F4E03BC029E834E076
:1040F00080E090E060E0ACE240913D0750E0082EA7
:1041000002C0559547950A94E2F740FF1AC071E046
:10411000760F662331F04091C00045FFFCCFA0939D
:10412000C600F90145915491FA016491662351F05A
:10413000E091C000E5FFFCCF6093C6004F5F5F4F8A
:10414000F3CF762F01962E5F3F4F8530910561F0BA
:10415000672FD2CF9091C00095FFFCCF8093C6000F
:10416000319684918111F6CF8091C00085FFFCCFFC
:104170008AE08093C600089583E5A4D9811103C025
:10418000E0E0F8E00EC091D98D3308F08CE3809325
:104190000A0208959091C00095FFFCCF8093C6005D
:1041A000319684918111F6CF40910A0250E060E08F
:1041B00070E08FE494E00E9490178091C00085FF2A
:1041C000FCCF8AE08093C600089583E57BD98823DD
:1041D00039F16BD9823010F1E6E0F8E08491882360
:1041E00041F09091C00095FFFCCF8093C6003196BE
:1041F000F5CFE4EDF2E08491882341F09091C00086
:1042000095FFFCCF8093C6003196F5CF8091C0001A
:1042100085FFFCCF8AE08093C6000895813049F184
:1042200088E450D9882389F040D98A3A91053CF036
:10423000833221E092072CF082E291E002C08AEA08
:1042400090E090934B1180934A1186E43BD98823E8
:10425000C1F12BD98F3F910519F014F08FEF90E049
:1042600097FF02C080E090E0909347118093461141
:10427000089588E427D9882389F017D98A3A9105C7
:104280003CF0833221E092072CF082E291E002C000
:104290008AEA90E0909345118093441186E412D904
:1042A000882379F002D98F3F910519F014F08FEF30
:1042B00090E097FF02C080E090E0909341118093DE
:1042C0004011089583E5FED8882391F0BDD820E001
:1042D00030E04AE754E40E940FA80E94AEA5609324
:1042E0001F0270932002809321029093220208956E
:1042F00088E5E8D881110EC089E5E4D881110AC0AB
:104300008AE5E0D8811106C085E4DCD8811102C0BD
:104310000C94E3580E947D5888E5D4D8882319F07E
:10432000179A1092160789E5CDD8882319F0169AA6
:10433000109217078AE5C6D8882319F0159A1092AB
:10434000180785E4BFD8882319F0149A139A0895A2
:1043500008953F924F925F926F927F928F929F92B9
:10436000AF92BF92CF92DF92EF92FF920F931F9383
:10437000CF93DF9391EB892E93E0992ECBE7DCE08E
:104380002BE8A22E2CE0B22E0BE31CE0312CF40122
:1043900081914F0197D8882309F456C0F3E03F126A
:1043A0004EC052D86B017C0120E030E040EA51E47D
:1043B0000E943AA587FF3EC0A701960168817981D6
:1043C0008A819B810E9441A52B013C019B01AC018C
:1043D00060914F0C7091500C8091510C9091520C47
:1043E0000E940FA860934F0C7093500C8093510C57
:1043F0009093520CA3019201F50160817181828139
:1044000093810E940FA8F501608371838283938357
:10441000F80160817181828193810E94DAA5A301F4
:1044200092010E940FA80E94AEA5F80160837183DB
:1044300082839383C882D982EA82FB8205C004D832
:10444000688379838A839B8333942496F4E0AF0E48
:10445000B11C0C5F1F4F84E0381299CFDF91CF91D0
:104460001F910F91FF90EF90DF90CF90BF90AF9092
:104470009F908F907F906F905F904F903F900895A6
:104480008F929F92AF92BF92CF92DF92EF92FF9264
:10449000ECE2F3E08491882341F09091C00095FF15
:1044A000FCCF8093C6003196F5CF409129075091FB
:1044B0002A0760912B0770912C0722E030E086E4F8
:1044C00094E00E941617E8E2F3E08491882341F01B
:1044D0009091C00095FFFCCF8093C6003196F5CF38
:1044E00040912D0750912E0760912F077091300752
:1044F00022E030E086E494E00E941617E4E2F3E064
:104500008491882341F09091C00095FFFCCF809367
:10451000C6003196F5CF4091310750913207609136
:1045200033077091340722E030E086E494E00E9483
:104530001617E0E2F3E08491882341F09091C000E7
:1045400095FFFCCF8093C6003196F5CF409135079B
:1045500050913607609137077091380722E030E0BC
:1045600086E494E00E9416178FB7F89440919F0C50
:104570005091A00C6091A10C7091A20C8090A30CA2
:104580009090A40CA090A50CB090A60CC090A70C85
:10459000D090A80CE090A90CF090AA0C8FBFE5E198
:1045A000F3E08491882341F09091C00095FFFCCF07
:1045B0008093C6003196F5CF2AE030E086E494E09F
:1045C0000E942116E1E1F3E08491882341F090916B
:1045D000C00095FFFCCF8093C6003196F5CF2AE04E
:1045E00030E0B501A40186E494E00E942116EDE0DC
:1045F000F3E08491882341F09091C00095FFFCCFB7
:104600008093C6003196F5CF2AE030E0B701A601CD
:1046100086E494E00E9421168091C00085FFFCCFC3
:104620008AE08093C600FF90EF90DF90CF90BF901C
:10463000AF909F908F900895CF93DF930E947D5805
:104640008091450290914602A0914702B0914802A4
:104650008093390790933A07A0933B07B0933C07A8
:10466000809143029091440290937C0580937B0556
:1046700084E690E090934402809343020E94631783
:1046800081E00E945450EED81092450210924602EA
:10469000109247021092480288E50E94621AD82FB1
:1046A00089E50E94621AC82F8AE50E94621AD11118
:1046B00005C0C11107C091E0982705C0CC2311F0B7
:1046C000982F01C090E090930D02911102C08823B1
:1046D00021F082E090E00E94521B80910D02811136
:1046E00002C0DD2321F080E090E00E94521B809107
:1046F0000D02811102C0CC2321F081E090E00E94E4
:10470000521B0E94481B80E00E9454508091390740
:1047100090913A07A0913B07B0913C0780934502E6
:1047200090934602A0934702B093480280917B0584
:1047300090917C0590934402809343020E946317FA
:104740000E945C50DF91CF919BCEE0E2F3E081913B
:10475000882339F09091C00095FFFCCF8093C6006C
:10476000F6CF8091C00085FFFCCF8AE08093C60021
:10477000E5E0F3E08491882341F09091C00095FF3B
:10478000FCCF8093C6003196F5CF1E9903C0E1E1BE
:10479000F3E009C0EBE1F3E006C09091C00095FFA3
:1047A000FCCF8093C60081918111F7CF8091C0002A
:1047B00085FFFCCF8AE08093C600EDEFF2E08491A4
:1047C000882341F09091C00095FFFCCF8093C600F4
:1047D0003196F5CF1D9903C0E1E1F3E009C0EBE1AB
:1047E000F3E006C09091C00095FFFCCF8093C60017
:1047F00081918111F7CF8091C00085FFFCCF8AE0C5
:104800008093C600E5EFF2E08491882341F0909117
:10481000C00095FFFCCF8093C6003196F5CF379945
:1048200003C0E1E1F3E009C0EBE1F3E006C09091E1
:10483000C00095FFFCCF8093C60081918111F7CF16
:104840008091C00085FFFCCF8AE08093C600089568
:1048500083E50E94621A8823F9F00E94241AAB01B2
:10486000BC014093630C5093640C6093650C70938F
:10487000660C40935B0C50935C0C60935D0C7093E2
:104880005E0C8CEA92E00E947F178091C00085FF49
:10489000FCCF8AE08093C60080E50E94621A8823DC
:1048A000B9F00E94241AAB01BC014093630C5093F1
:1048B000640C6093650C7093660C8FE892E00E9424
:1048C0007F178091C00085FFFCCF8AE08093C600EF
:1048D00082E50E94621A8823B9F00E94241AAB0173
:1048E000BC0140935F0C5093600C6093610C70931B
:1048F000620C80E792E00E947F178091C00085FFE4
:10490000FCCF8AE08093C60084E50E94621A882367
:10491000B9F00E94241AAB01BC0140935B0C509388
:104920005C0C60935D0C70935E0C82E592E00E94DB
:104930007F178091C00085FFFCCF8AE08093C6007E
:10494000089583E50E94621A882351F00E94241A78
:104950006093670C7093680C8093690C90936A0C59
:1049600084E50E94621A882351F00E94241A609301
:104970004B0C70934C0C80934D0C90934E0C82E436
:104980000E94621A882361F00E94241A0E94AEA538
:1049900060939B0C70939C0C80939D0C90939E0C49
:1049A00088E50E94621A882351F00E94241A6093BD
:1049B000570C7093580C8093590C90935A0C8AE5BD
:1049C0000E94621A882351F00E94241A6093530CAB
:1049D0007093540C8093550C9093560C85E40E9470
:1049E000621A882351F00E94241A60934F0C70932E
:1049F000500C8093510C9093520C08958F929F927B
:104A0000AF92BF92CF92DF92EF92FF920F931F93DC
:104A1000CF93DF9331EBC32E33E0D32E49E2E42E64
:104A200047E0F42E02E615E0C0E0D0E0F601819107
:104A30006F010E94621A882309F10E94241A4B0117
:104A40005C01F80120813181428153810E9460A480
:104A50009B01AC01F70160817181828193810E9489
:104A600061A4F7016083718382839383F80180825C
:104A70009182A282B382CE010E941D172196F4E09A
:104A8000EF0EF11C0C5F1F4FC330D10579F6DF919B
:104A9000CF911F910F91FF90EF90DF90CF90BF903B
:104AA000AF909F908F900C94481B0F931F93CF93C0
:104AB000DF938AED90E00E94761A811173C088E539
:104AC0000E94621A882381F0C0913605D0E00E94CE
:104AD000241AFE01EE0FFF1FEE0FFF1FE15FFD4FD7
:104AE000608371838283938389E50E94621A88239D
:104AF00081F0C0913605D0E00E94241AFE01EE0F2D
:104B0000FF1FEE0FFF1FE95EFD4F608371838283FD
:104B10009383E0E0F8E08491882341F09091C00015
:104B200095FFFCCF8093C6003196F5CFE2E4F2E02A
:104B30008491882341F09091C00095FFFCCF809331
:104B4000C6003196F5CFCFE0D2E000E21CE28091C2
:104B5000C00085FFFCCF0093C6004991599169912F
:104B6000799122E030E086E494E00E94161780916B
:104B7000C00085FFFCCF1093C6004C815D816E8123
:104B80007F8122E030E086E494E00E94161782E004
:104B9000C731D807E1F68091C00085FFFCCF8AE0DD
:104BA0008093C600DF91CF911F910F91089585E406
:104BB0000E94621A811110C080E50E94621A882347
:104BC000A9F00E94241A6093730270937402809378
:104BD0007502909376020AC00E94241A0E94A9A529
:104BE000623071054CF3E6E0F8E0D5C089E40E943C
:104BF000621A882361F00E94241A0E94C26960939D
:104C00006F0270937002809371029093720284E439
:104C10000E94621A882361F00E94241A0E94CE69C1
:104C200060936B0270936C0280936D0290936E029E
:104C300083E40E94621A882351F00E94241A609330
:104C40006702709368028093690290936A028CE411
:104C50000E94621A882341F00E94241A0E94A9A58A
:104C600070930C0260930B0280910B0290910C02E6
:104C7000C39734F082E390E090930C0280930B0290
:104C80000E940D5DE0E0F8E08491882341F090916E
:104C9000C00095FFFCCF8093C6003196F5CFE9E3C5
:104CA000F3E08191882339F09091C00095FFFCCF0B
:104CB0008093C600F6CF40917302509174026091C8
:104CC00075027091760222E030E086E494E00E9462
:104CD0001617EDE3F3E08191882339F09091C0003D
:104CE00095FFFCCF8093C600F6CF60916F02709164
:104CF000700280917102909172020E94C869AB01AA
:104D0000BC0122E030E086E494E00E941617E1E462
:104D1000F3E08191882339F09091C00095FFFCCF9A
:104D20008093C600F6CF60916B0270916C02809107
:104D30006D0290916E020E94D469AB01BC0122E029
:104D400030E086E494E00E941617E5E4F3E08191F8
:104D5000882339F09091C00095FFFCCF8093C60066
:104D6000F6CF40916702509168026091690270919C
:104D70006A0222E030E086E494E00E9416178091F7
:104D8000C00085FFFCCF1AC09091C00095FFFCCFFA
:104D90008093C600319684918111F6CFE9E4F3E067
:104DA0008191882339F09091C00095FFFCCF8093CA
:104DB000C600F6CF8091C00085FFFCCF8AE08093CB
:104DC000C6000895EF92FF920F93CF93DF9385E48F
:104DD0000E94621A882321F00E94551AEC0102C039
:104DE000C0E0D0E083E40E94621A882321F00E9490
:104DF000551A7C0103C0B5E0EB2EF12C85E50E942D
:104E0000621A882329F00E94551A01E0892B09F4BF
:104E100000E083E50E94621A882319F00E94241A98
:104E20000BC0D7FF05C060E070E08CE892E404C0DE
:104E300060E070E086E193E4C230D10510F4C093E5
:104E4000360510923105109230059701AE010E948F
:104E5000B06381E090E09093310580933005DF915D
:104E6000CF910F91FF90EF9008952F923F924F9224
:104E70005F926F927F928F929F92AF92BF92CF92EA
:104E8000DF92EF92FF920F931F93CF93DF9300D0A7
:104E900000D0CDB7DEB783E197E09C838B83E2E659
:104EA000F5E0FA83E98309E217E01E821D82212CD6
:104EB000312CEB81FC818191FC83EB83882309F405
:104EC0009BC0ED81FE81ED5DFD4F208131814281EE
:104ED0005381ED81FE81EA5AFA4F608171818281AE
:104EE00093810E9461A420E030E040E05FE30E94F3
:104EF0000FA89B01AC01F8016081718182819381CF
:104F00000E943DA718164CF48D819E818452984FC3
:104F10000E9417179B01AC0103C020E030E0A901FB
:104F2000F80180809180A280B380C501B4010E9405
:104F300060A46B017C0120E030E040EA51EC0E946B
:104F40003DA718161CF0E6E0F8E038C020E030E09D
:104F500040EA51E4C701B6010E943AA587FFF3CFAA
:104F6000E981FA814080518062807380A7019601B7
:104F7000C301B2010E9460A46B017C01A3019201F4
:104F80000E9460A49B01AC01C501B4010E9461A410
:104F9000F8016083718382839383E981FA81C082FF
:104FA000D182E282F382C1010E941D1725C0909137
:104FB000C00095FFFCCF8093C6003196849181118B
:104FC000F6CFE5E2F2E08491882341F09091C000B1
:104FD00095FFFCCF8093C6003196F5CF8091C0003D
:104FE00085FFFCCF8AE08093C60087E192E00E94B3
:104FF000887C48E250E025C0FFEF2F1A3F0A8981E4
:105000009A8104969A838983ED81FE813496FE838A
:10501000ED830C5F1F4FF3E02F16310409F049CFE9
:105020000E94481B60E087E092E00E94707C43E9A8
:1050300052E068EC70E080E090E00E94CD394AEBED
:1050400052E068EC70E080E090E026960FB6F894AD
:10505000DEBF0FBECDBFDF91CF911F910F91FF90AB
:10506000EF90DF90CF90BF90AF909F908F907F9008
:105070006F905F904F903F902F900C94CD391F937D
:10508000CF93DF93C1EBD3E010E089910E94621AC5
:10509000882339F00E94241A0E94A9A5812F0E941A
:1050A00022591F5F143089F782E40E94621A882314
:1050B00039F00E94241A0E94A9A584E00E94225976
:1050C00083E50E94621A882359F0C0E00E94241AE6
:1050D0000E94A9A58C2F0E942259CF5FC530B1F73D
:1050E000DF91CF911F9108951F93CF93DF9383E5B5
:1050F0000E94621A811104C0C1EBD3E010E00FC01E
:10510000C0E00E94241A0E94AEA58C2F0E94C559AF
:10511000CF5FC530B1F7F0CF1F5F143069F08991D0
:105120000E94621A8823C1F30E94241A0E94AEA52D
:10513000812F0E94C559F0CF82E40E94621A882311
:1051400039F00E94241A0E94AEA584E00E94C5593D
:10515000DF91CF911F910C94965A1F93CF93DF93B9
:1051600083E50E94621A882309F44AC00E94551AF6
:105170008130910539F0029709F042C0C1EBD3E0CC
:1051800010E021C0C1EBD3E010E089910E94621AC7
:10519000882341F00E94241A0E94A9A54FEF812F75
:1051A0000E9474591F5F143081F782E40E94621AD2
:1051B000882331F10E94241A0E94A9A54FEF1DC037
:1051C0001F5F143079F089910E94621A8823C1F31D
:1051D0000E94241A0E94A9A5462F6FEF812F0E94DA
:1051E0007459EECF82E40E94621A882349F00E942B
:1051F000241A0E94A9A5462F6FEF84E00E947459DB
:10520000DF91CF911F910C94965A0E946317E09101
:105210000507F0910607EE5CFA4F80818823A1F024
:10522000EBEFF1E08491882341F09091C00095FF6D
:10523000FCCF8093C6003196F5CF8091C00085FFEA
:10524000FCCF8AE08093C600089586E494E00E9433
:105250008315EEEFF1E08491882341F09091C00036
:1052600095FFFCCF8093C6003196F5CF40910B0798
:1052700050910C0760910D0770910E074F5F5F4FC3
:105280006F4F7F4F2AE030E086E494E00E942116C1
:105290008091C00085FFFCCF8AE08093C600B5CF27
:1052A000CF93C62FE6E0F8E02491222379F03091E5
:1052B000C00035FFFCCF2093C6003196F5CF30916A
:1052C000C00035FFFCCF2093C6000196FC0124915D
:1052D0002111F5CF40910B0750910C0760910D07FC
:1052E00070910E072AE030E086E494E00E942116D7
:1052F0008091C00085FFFCCF8AE08093C600C11179
:10530000A4DF1092500510924F05CF910895CF92CF
:10531000DF92EF92FF92CF93DF93EC01C09056059E
:10532000D0905705E0905805F0905905A7019601D7
:10533000688179818A819B810E943AA587FF04C098
:10534000C882D982EA82FB82C0905A05D0905B0560
:10535000E0905C05F0905D05A70196016C817D8170
:105360008E819F810E943AA587FF04C0CC82DD8296
:10537000EE82FF8220E030E0A90160915E0570912D
:105380005F0580916005909161050E9461A46B01A9
:105390007C019B01AC01688579858A859B850E948B
:1053A0003AA587FF04C0C886D986EA86FB86C090E6
:1053B0002302D0902402E0902502F0902602A7015B
:1053C0009601688179818A819B810E943DA7181688
:1053D00024F4C882D982EA82FB82C0902702D0904E
:1053E0002802E0902902F0902A02A70196016C8120
:1053F0007D818E819F810E943DA7181624F4CC8266
:10540000DD82EE82FF82C0902B02D0902C02E090D1
:105410002D02F0902E02A7019601688579858A8574
:105420009B850E943DA7181624F4C886D986EA8673
:10543000FB86DF91CF91FF90EF90DF90CF900895A2
:105440008F929F92AF92BF92CF92DF92EF92FF9294
:105450000F931F93CF93DF93EC018B0180913D0756
:1054600083FD90C0FB0180809180A280B380288161
:1054700039814A815B81C501B4010E9460A46B013E
:105480007C0120E030E0A9010E943AA5882309F4BC
:1054900079C0E091530524E0E29FF0011124E05A25
:1054A000F14F20910602309107024091080250917D
:1054B000090260817181828193810E943AA587FFF0
:1054C00025C088829982AA82BB82E0E0F8E08491BC
:1054D000882341F09091C00095FFFCCF8093C600D7
:1054E0003196F5CFE1EEF1E08491882341F090917F
:1054F000C00095FFFCCF8093C6003196F5CF809118
:10550000C00085FFFCCF8AE08093C600C701B601CA
:105510000E94A9A597FF07C0909580957095619509
:105520007F4F8F4F9F4F6D3C71408105910554F126
:10553000F80180819181A281B38188839983AA83B4
:10554000BB83E0E0F8E08491882341F09091C000B3
:1055500095FFFCCF8093C6003196F5CFE3ECF1E0E8
:105560008491882341F09091C00095FFFCCF8093F7
:10557000C6003196F5CF8091C00085FFFCCF8AE050
:105580008093C600DF91CF911F910F91FF90EF9014
:10559000DF90CF90BF90AF909F908F90089589E15A
:1055A00097E0B5DE0E94631765E277E085E397E058
:1055B00047DF2091190730911A0740911B0750913E
:1055C0001C076091290770912A0780912B07909101
:1055D0002C070E943AA5811117C020911D07309118
:1055E0001E0740911F075091200760912D07709171
:1055F0002E0780912F07909130070E943AA58111C4
:1056000003C00E943F1B1CC0609143027091440282
:10561000882777FD8095982F0E94DCA52091450270
:105620003091460240914702509148020E940FA8D3
:1056300020E030E048EC52E40E9441A50E94201B8B
:105640000C94281CCF92DF92EF92FF92CF93DF93BE
:10565000C82F823060F1E0E0F8E08491882341F0C7
:105660009091C00095FFFCCF8093C6003196F5CF96
:105670008091C00085FFFCCF84E58093C6004AE09E
:1056800050E06C2F86E494E00E947B16E9E4F3E09E
:105690008191882339F09091C00095FFFCCF8093D1
:1056A000C600F6CF8091C00085FFFCCFB2C08093CA
:1056B000360586E40E94621A8823A1F00E94241A0B
:1056C0006B017C0120E030E0A9010E943DA7181683
:1056D0005CF4C0924502D0924602E0924702F092FA
:1056E000480202C0D0E001C0D1E080915305C81744
:1056F00009F469C00E94321CCC2ED12CE0905305D5
:10570000F12CF601EE0FFF1FEE0FFF1FE15FFD4FC3
:10571000D701AA0FBB1FAA0FBB1FA15FBD4F2D91C1
:105720003D914D915C9160817181828193810E9454
:1057300060A49B01AC016091290770912A078091B8
:105740002B0790912C070E9461A460932907709306
:105750002A0780932B0790932C07F601EE0FFF1F6B
:10576000EE0FFF1FE95EFD4FD701AA0FBB1FAA0F67
:10577000BB1FA95EBD4F2D913D914D915C91608104
:105780007181828193810E9460A49B01AC01609130
:105790002D0770912E0780912F07909130070E945E
:1057A00061A460932D0770932E0780932F07909329
:1057B0003007C09353050E94481BDD2321F08091E0
:1057C0004902811130C0E0E0F8E08491882341F083
:1057D0009091C00095FFFCCF8093C6003196F5CF25
:1057E000EAE5F3E08191882339F09091C00095FFBC
:1057F000FCCF8093C600F6CF6091530570E04AE07D
:1058000050E086E494E00E9444168091C00085FF39
:10581000FCCF8AE08093C600DF91CF91FF90EF909C
:10582000DF90CF900895BBDECECF2F923F924F9264
:105830005F926F927F928F929F92AF92BF92CF9220
:10584000DF92EF92FF920F931F93CF93DF93CDB729
:10585000DEB7C654D1090FB6F894DEBF0FBECDBF78
:105860001C017EA76DA7142FDB0114968D909D90CF
:10587000AD90BC901797CD90DD90ED90FC90A50178
:105880009401C701B6010E944AA723966CAF7DAF71
:105890008EAF9FAF23978091290790912A07A091FF
:1058A0002B07B0912C07898F9A8FAB8FBC8FA701E4
:1058B0009601BC01CD010E9461A46FAB78AF89AFA6
:1058C0009AAF80912D0790912E07A0912F07B0914C
:1058D00030078D8F9E8FAF8FB8A3A5019401BC01B7
:1058E000CD010E9461A46BAF7CAF8DAF9EAF809164
:1058F000310790913207A0913307B091340789A303
:105900009AA3ABA3BCA39C01AD01D10118966D91E4
:105910007D918D919C911B970E9460A46DA37EA3A5
:105920008FA398A7D1011C968D919D910D90BC914C
:10593000A02D27968CAF9DAFAEAFBFAF27978091BC
:10594000350790913607A0913707B091380789A79E
:105950009AA7ABA7BCA7D701C601B0588D8B9E8B69
:10596000AF8BB88FD501C401B058898B9A8BAB8BA4
:10597000BC8BD1018D919D910D90BC91A02D8FA7D5
:1059800098ABA9ABBAAB2FA938AD49AD5AADBC01A4
:10599000CD010E9460A46B017C01D10114968D9110
:1059A0009D910D90BC91A02D8BAB9CABADABBEABD4
:1059B0002BAD3CAD4DAD5EADBC01CD010E9460A4F0
:1059C0004B015C01A70196016D897E898F89988DB5
:1059D0000E940FA82B013C01A501940169897A89D5
:1059E0008B899C890E940FA89B01AC01C301B20165
:1059F0000E9461A42B013C01A50194016D897E895F
:105A00008F89988D0E940FA84B015C01A701960118
:105A100069897A898B899C890E940FA89B01AC01B6
:105A2000C501B4010E9460A4A30192010E94D4A404
:105A30006B017C0120E030E0A9010E943AA587FFBC
:105A40000AC02BED3FE049EC50E4C701B6010E94CB
:105A500061A46B017C01112351F02BED3FE049EC77
:105A600050E4C701B6010E9460A46B017C0120E0F4
:105A700030E0A901C701B6010E943AA5811122C0F8
:105A80002FA538A949A95AA9698D7A8D8B8D9C8D2E
:105A90000E943AA5811116C02BA93CA94DA95EA967
:105AA0006D8D7E8D8F8D98A10E943AA581110AC0BF
:105AB0002BED3FE049EC50E4C701B6010E9461A420
:105AC0006B017C0123962CAD3DAD4EAD5FAD2397B0
:105AD000C701B6010E940FA82DA13EA14FA158A554
