:100000000C942D150C945E150C945E150C945E15D5
:100010000C945E150C945E150C945E150C945E1594
:100020000C945E150C945E150C945E150C945E1584
:100030000C945E150C945E150C945E150C945E1574
:100040000C945E150C9487540C945E150C945E15FC
:100050000C945E150C945E150C94CD6B0C9442A719
:100060000C945E150C9460150C945E150C945E1542
:100070000C945E150C945E150C945E150C945E1534
:100080000C945E150C945E150C945E150C945E1524
:100090000C945E150C945E150C945E150C945E1514
:1000A0000C945E150C945E150C945E150C945E1504
:1000B0000C945E150C945E150C945E150C945E15F4
:1000C0000C945E150C945E150C945E150C945E15E4
:1000D0000C945E150C945E150C945E150C945E15D4
:1000E0000C945E15486C576C766C856CA06CAF6C8C
:1000F000CA6CCF6CD26CD76CDA6CDF6CE96C77A809
:100100007CA881A88BA895A80EA99FA8A7A8AFA88E
:10011000B9A8C3A8CDA8DCA8E6A80EA9F0A8FAA89B
:1001200004A92FA932A921A925A92BA969A936A912
:100130003AA940A944A948A94EA952A956A969A912
:100140005CA960A964A9084AD73B3BCE016E84BC78
:10015000BFFDC12F3D6C74319ABD56833DDA3D0021
:10016000C77F11BED9E4BB4C3E916BAAAABE00006A
:1001700000803F05A84CCDB2D44EB93836A9020C48
:1001800050B9918688083CA6AAAA2ABE0000008021
:100190003F005072696E7465722068616C746564AA
:1001A0002E206B696C6C28292063616C6C6564215E
:1001B000004B494C4C45442E20004B494C4C454487
:1001C0002E200020746F6F206C6F6E67206578742E
:1001D000727573696F6E2070726576656E74656492
:1001E0000020636F6C6420657874727573696F6E3C
:1001F0002070726576656E746564006F6B00526581
:1002000073656E643A20004F66667365747320618F
:1002100070706C696564004572723A20546F6F208B
:100220006661722100546F6F206661722066726F82
:100230006D207265666572656E636520706F696EAC
:100240007400486F74656E64206F666673657473BE
:100250003A0053657474696E672054726176656CF8
:1002600020416363656C65726174696F6E3A20004A
:1002700053657474696E672052657472616374208B
:10028000416363656C65726174696F6E3A200053F7
:10029000657474696E67205072696E74204163637F
:1002A000656C65726174696F6E3A20005365747491
:1002B000696E67205072696E7420616E642054729A
:1002C0006176656C20416363656C65726174696F0A
:1002D0006E3A20004D31343520533C696E646578A8
:1002E0003E206F7574206F662072616E67652028EE
:1002F000302D3129007A5F6D61783A2000795F6D89
:10030000696E3A2000785F6D696E3A2000205A3A93
:100310000020593A0020436F756E7420583A20002F
:1003200020453A00205A3A0020593A00583A0046EF
:1003300049524D574152455F4E414D453A4D6172CC
:100340006C696E20312E312E302D524336202847D5
:1003500069746875622920534F555243455F434F76
:1003600044455F55524C3A68747470733A2F2F6746
:1003700069746875622E636F6D2F4D61726C696E62
:100380004669726D776172652F4D61726C696E207E
:1003900050524F544F434F4C5F56455253494F4E66
:1003A0003A312E30204D414348494E455F54595013
:1003B000453A3344205072696E7465722045585432
:1003C00052554445525F434F554E543A322055558D
:1003D00049443A63656465326132662D3431613275
:1003E0002D343734382D396231322D63353563364B
:1003F000326633363766660A003344205072696EBF
:10040000746572204F66662E003344205072696E08
:100410007465722072656164792E0042656420649F
:100420006F6E652E003F0020573A004265642048F9
:10043000656174696E672E0048656174696E672036
:10044000646F6E652E003F0020573A004865617466
:10045000696E672E2E2E003344205072696E7465CB
:10046000722072656164792E006F6B004D313133FB
:100470002053004B494C4C45442E20004543484FE7
:1004800000494E464F004552524F52530044525974
:1004900052554E00434F4D4D554E49434154494FDF
:1004A0004E006F6666007C04810486048D0494040B
:1004B00044454255473A0048656174696E672E2E7F
:1004C0002E003344205072696E746572207265612B
:1004D00064792E002569206D696E2C2025692073B2
:1004E0006563004E6F206D6F76652E00334420509B
:1004F00072696E7465722072656164792E0057614D
:10050000697420666F7220757365722E2E2E0054EA
:10051000455354005761726E696E673A20486F6D9B
:10052000696E672042756D702044697669736F72D9
:10053000203C203100536C6565702E2E2E0020402B
:100540000020403A002042403A00202F0020540072
:10055000202F0020423A00202F0020543A006275DC
:1005600073793A2070617573656420666F722069D3
:100570006E70757400627573793A20706175736579
:100580006420666F72207573657200627573793AC4
:100590002070726F63657373696E6700220A00557D
:1005A0006E6B6E6F776E20636F6D6D616E643A2057
:1005B000220020496E76616C6964206578747275DA
:1005C00064657220004B494C4C45442E2000535426
:1005D0004F505045442E20005072696E7465722051
:1005E00073746F707065642064756520746F206526
:1005F00072726F72732E2046697820746865206568
:1006000072726F7220616E6420757365204D393986
:100610003920746F20726573746172742E202854AF
:10062000656D70657261747572652069732072659D
:100630007365742E20536574206974206166746537
:10064000722072657374617274696E6729004E6FEF
:10065000204C696E65204E756D62657220776974F5
:100660006820636865636B73756D2C204C617374CF
:10067000204C696E653A20004E6F20436865636BBD
:1006800073756D2077697468206C696E65206E756E
:100690006D6265722C204C617374204C696E653AF2
:1006A0002000636865636B73756D206D69736D61A0
:1006B0007463682C204C617374204C696E653A2019
:1006C000004C696E65204E756D62657220697320FD
:1006D0006E6F74204C617374204C696E65204E758A
:1006E0006D6265722B312C204C617374204C696EE5
:1006F000653A20004D313130002020506C616E6E23
:10070000657242756666657242797465733A200057
:100710002046726565204D656D6F72793A20004103
:100720007567202031203230313600436F6D70699B
:100730006C65643A2000286E6F6E652C20646566D7
:1007400061756C7420636F6E6669672900207C2078
:10075000417574686F723A2000323031362D303472
:100760002D32342031323A303000204C6173742005
:10077000557064617465643A200020312E312E304A
:100780002D524336004D61726C696E0020536F66C6
:1007900074776172652052657365740020576174C7
:1007A0006368646F67205265736574002042726FDE
:1007B000776E206F757420526573657400204578DC
:1007C0007465726E616C20526573657400506F774A
:1007D00065725570007374617274002200656E71E9
:1007E00075657565696E67202200FFFF010000A036
:1007F000400000A0400000004000004D4300007F8A
:1008000043000051430000000000000000000051C0
:100810004300004D4300007F4300005143000000AF
:100820000000000000000000006563686F3A0045AA
:1008300072726F723A0020204D3230302044300006
:1008400020204D32303020543120440020204D32C1
:1008500030302044002044697361626C6564004656
:10086000696C616D656E742073657474696E67730D
:100870003A00204C00204300204400204900202062
:100880004D333031205000204C00204300204400E4
:1008900020490020500020204D33303120450050A9
:1008A00049442073657474696E67733A002046008A
:1008B00020420020204D3134352053312048002083
:1008C000460020420020204D31343520533020484E
:1008D000004D6174657269616C2068656174757042
:1008E00020706172616D65746572733A00205A0000
:1008F00020590020204D323036205800486F6D6559
:10090000206F666673657420286D6D293A00204556
:1009100000205A0020580020420020540020204D82
:10092000323035205300416476616E636564207611
:1009300061726961626C65733A20533D4D696E2046
:10094000666565647261746520286D6D2F73292C4E
:1009500020543D4D696E2074726176656C20666529
:1009600065647261746520286D6D2F73292C204297
:100970003D6D696E696D756D207365676D656E742B
:100980002074696D6520286D73292C20583D6D6198
:1009900078696D756D205859206A65726B20286DD5
:1009A0006D2F73292C20205A3D6D6178696D756D0E
:1009B000205A206A65726B20286D6D2F73292C20B8
:1009C00020453D6D6178696D756D2045206A6572C1
:1009D0006B20286D6D2F73290020540020520020B9
:1009E000204D323034205000416363656C65726184
:1009F00074696F6E733A20503D7072696E74696EDF
:100A0000672C20523D7265747261637420616E645C
:100A100020543D74726176656C00204500205A00B8
:100A200020590020204D3230312058004D61786926
:100A30006D756D20416363656C65726174696F6E7D
:100A400020286D6D2F7332293A00204500205A006E
:100A500020590020204D3230332058004D617869F4
:100A60006D756D2066656564726174657320286DAF
:100A70006D2F73293A00204500205A00205900208C
:100A8000204D3932205800537465707320706572A0
:100A900020756E69743A0048617264636F646564BE
:100AA0002044656661756C742053657474696E6763
:100AB00073204C6F616465640020746F6F206C6FED
:100AC0006E6720657874727573696F6E20707265D9
:100AD00076656E7465640020636F6C64206578745D
:100AE000727573696F6E2070726576656E74656479
:100AF0000045313A200045303A20005A3A2000594A
:100B00003A2000583A20004D53312C4D533220509A
:100B1000696E730A00456E6473746F707320256389
:100B200020256320256320256300205A3A002059A0
:100B30003A0020583A00656E6473746F70732068D1
:100B400069743A200024F4D43050C38E20C2A240ED
:100B500017828B7011127A910D816CD90AA861E10C
:100B600008C7586607615143061E4B5D05C145A77E
:100B7000041A411104093D9803713931034036DBF1
:100B80000265339102D4305402802E1D02632CEE94
:100B900001752AC501B028A001102781018F2564A5
:100BA000012B244B01E0223401AC211F018D200DCB
:100BB00001801FFC00841EED00971DDF00B81CD2D1
:100BC00000E61BC600201BBC00641AB200B219A8C4
:100BD000000A19A0006A189900D117910040178BDC
:100BE00000B516840031167E00B31579003A1573EE
:100BF00000C7146F0058146A00EE13660088136370
:100C00000025135E00C7125B006C125700151254CA
:100C100000C111510070114F0021114B00D6104935
:100C2000008D1047004610440002104200C00F40E3
:100C300000800F3E00420F3C00060F3B00CB0E38F9
:100C400000930E37005C0E3500270E3400F30D3292
:100C500000C10D3100900D3000600D2E00320D2DC1
:100C600000050D2C00D90C2B00AE0C2900850C2999
:100C7000005C0C2700350C27000E0C2600E80B2426
:100C800000C40B2400A00B23007D0B23005A0B2172
:100C900000390B2100180B2000F80A1F00D90A1E8A
:100CA00000BB0A1E009D0A1D00800A1D00630A1C6D
:100CB00000470A1B002C0A1B00110A1A00F7091A28
:100CC00000DD091900C4091900AB091900920917C0
:100CD000007B091800630917004C09160036091635
:100CE00000200916000A091500F5081500E008148F
:100CF00000CC081400B8081400A4081400900813CD
:100D0000007D0812006B08130058081200460812F4
:100D10000034081100230811001208110001081105
:100D200000F0071000E0071000D0071000C0071007
:100D300000B0070F00A107100091070E0083070FF6
:100D40000074070F0065070E0057070E0049070ED5
:100D5000003B070D002E070E0020070D0013070DA6
:100D60000006070D00F9060C00ED060D00E0060C6C
:100D700000D4060C00C8060C00BC060C00B0060C23
:100D800000A4060B0099060C008D060B0082060BD2
:100D90000077060B006C060B0061060A0057060B75
:100DA000004C060A0042060A0038060A002E060A0F
:100DB0000024060A001A060A001006090007060A9F
:100DC00000FD050900F4050900EB050900E205092D
:100DD00000D9050900D0050900C7050900BE0509AD
:100DE00000B5050800AD050800A50509009C05082B
:100DF00000940508008C050800840508007C05089F
:100E000000740508006C050700650508005D05070E
:100E100000560508004E0507004705070040050875
:100E20000038050700310507002A050700230507DC
:100E3000001C050600160507000F0507000805063B
:100E40000002050700FB040600F5040700EE040697
:100E500000E8040600E2040700DB040600D50406EF
:100E600000CF040600C9040600C3040600BD040642
:100E700000B7040600B1040500AC040600A6040691
:100E800000A00405009B04060095040500900406DC
:100E9000008A04050085040500800406007A040524
:100EA0000075040500700405006B04050066040568
:100EB00000610405005C04050057040500520405A8
:100EC000004D04050048040500430405003E0404E9
:100ED000003A04050035040500300404002C040524
:100EE0000027040400230405001E0404001A04045F
:100EF0000016040500110404000D04040009040593
:100F0000000404040000040400FC030400F80304CB
:100F100000F4030400F0030400EC030400E80304FD
:100F200000E4030400E0030400DC030400D803042D
:100F300000D4030400D0030400CC030400C803035E
:100F400000C503030024F404D9201BC40C5C0E98D4
:100F500004C4095F0265077101F405F900FB04B3DD
:100F60000048048700C10369005803550003034586
:100F700000BE023A008402310053022A00290225F1
:100F80000004022000E4011C00C8011900AF011791
:100F90000098011400840113007101100061011018
:100FA0000051010E0043010D0036010B002B010B17
:100FB0000020010B00150109000C010900030108C4
:100FC00000FB000800F3000800EB000700E4000647
:100FD00000DE000600D8000600D2000600CC0005A6
:100FE00000C7000500C2000500BD000400B90004F0
:100FF00000B5000400B1000400AD000400A9000425
:1010000000A5000300A20003009F0004009B000352
:101010000098000300950002009300030090000375
:10102000008D0002008B0003008800020086000291
:101030000084000300810002007F0002007D0002A6
:10104000007B0002007900020077000100760002B8
:10105000007400020072000100710002006F0002C3
:10106000006D0001006C0002006A000100690002CE
:1010700000670001006600010065000100640002D5
:10108000006200010061000100600001005F0002D9
:10109000005D0001005C0001005B0001005A0001DE
:1010A00000590001005800010057000100560001DE
:1010B00000550001005400010053000000530001DE
:1010C000005200010051000100500001004F0001DA
:1010D000004E0000004E0001004D0001004C0001D8
:1010E000004B0000004B0001004A000100490001D4
:1010F00000480000004800010047000100460000D1
:1011000000460001004500000045000100440001C8
:1011100000430000004300010042000000420001C3
:10112000004100000041000100400001003F0000BC
:10113000003F0001003E0000003E0001003D0000B5
:10114000003D0001003C0000003C0000003C0001AC
:10115000003B0000003B0001003A0000003A0001A3
:10116000003900000039000100380000003800009C
:101170000038000100370000003700010036000091
:101180000036000000360001003500000035000088
:10119000003500010034000000340000003400017C
:1011A0000033000000330000003300010032000073
:1011B0000032000000320001003100000031000068
:1011C000003100010030000000300000003000015C
:1011D000002F0000002F0000002F0000002F000152
:1011E000002E0000002E0000002E0001002D000047
:1011F000002D0000002D0000002D0001002C00003B
:10120000002C0000002C0000002C0001002B00002E
:10121000002B0000002B0000002B0001002A000022
:10122000002A0000002A0000002A00010029000016
:101230000029000000290000002900000029000109
:1012400000280000002800000028000000280000FE
:1012500000280001002700000027000000270000F0
:1012600000270000002700010026000000260000E3
:1012700000260000002600000026000100250000D6
:1012800000250000002500000025000000250000CA
:1012900000250001002400000024000000240000BC
:1012A00000240000002400010023000000230000AF
:1012B00000230000002300000023000000230000A2
:1012C0000023000100220000002200000022000094
:1012D0000022000000220000002200010021000086
:1012E000002100000021000000210000002100007A
:1012F000002100000021000100200000002000006B
:10130000002000000020000000200000002000005D
:101310000020000000200001001F0000001F00004E
:10132000001F0000001F0000001F0000001F000041
:10133000001F0001001E0000001E0000001E000033
:10134000001E0000004D494E54454D5020747269F6
:10135000676765726564004572723A204D494E5464
:10136000454D5020424544004D415854454D502074
:10137000747269676765726564004572723A204DE0
:10138000415854454D502042454400546865726DA3
:10139000616C2052756E6177617900544845524DF9
:1013A000414C2052554E415741590048656174697E
:1013B0006E67206661696C65640048656174696E7A
:1013C00067206661696C6564004D494E54454D5017
:1013D00020747269676765726564004572723A20AD
:1013E0004D494E54454D5000626564002C20737980
:1013F0007374656D2073746F707065642120486527
:10140000617465725F49443A20004D415854454D1E
:101410005020747269676765726564004572723A3C
:10142000204D415854454D500023646566696E65F2
:10143000202044454641554C545F4B6420002364B2
:101440006566696E65202044454641554C545F4BA6
:1014500069200023646566696E6520204445464125
:10146000554C545F4B702000504944204175746FB7
:1014700074756E652066696E6973686564212050B5
:10148000757420746865206C617374204B702C2017
:101490004B6920616E64204B6420636F6E737461CE
:1014A0006E74732066726F6D2062656C6F77206951
:1014B0006E746F20436F6E66696775726174696FD1
:1014C0006E2E6800504944204175746F74756E65C6
:1014D000206661696C6564212074696D656F75743F
:1014E00000504944204175746F74756E65206661C3
:1014F000696C6564212054656D70657261747572E4
:101500006520746F6F206869676800204B643A201B
:1015100000204B693A2000204B703A200020436C99
:1015200061737369632050494420002054753A2048
:1015300000204B753A2000206D61783A2000206D24
:10154000696E3A200020643A200020626961733A93
:10155000200070012C0190012701B0012201C0017F
:101560001D01F00118011002130130020E0160028A
:10157000090190020401C002FF000003FA004003C9
:10158000F5008003F000D003EB002004E6007004B7
:10159000E100E004DC004005D700C005D2004006B1
:1015A000CD00D006C8008007C3003008BE00F00898
:1015B000B900C009B400B00AAF00B00BAA00D00C4B
:1015C000A500000EA000500F9B00C0109600501206
:1015D000910000148C00C0158700B0178200B0196C
:1015E0007D00D01B7800001E730040206E0090220A
:1015F0006900F024640040275F0090295A00E02B26
:101600005500102E500020304B0010324600E033C1
:10161000410090353C001037370070383200A03957
:101620002D00B03A2800A03B2300603C1E00103D76
:101630001900903D1400103E0F00703E0A00C03E9D
:101640000500003F00004D3432380020003F000903
:1016500020005A0059005800466C6F77203200462F
:101660006C6F77203200466C6F77203100466C6FCC
:1016700077203100466C6F7700466C6F77004661CB
:101680006E2073706565640046616E2073706565D9
:10169000640042656400426564004E6F7A7A6C654E
:1016A0002032004E6F7A7A6C652032004E6F7A7A63
:1016B0006C652031004E6F7A7A6C65203100537072
:1016C000656564005370656564004D61696E004D29
:1016D0006F76652058004D6F76652059004D6F7606
:1016E00065205A00457874727564657232004578D9
:1016F00074727564657231004578747275646572D0
:101700003200457874727564657231004D6F76658C
:10171000205A004D6F76652059004D6F7665205830
:10172000004D6F76652061786973004D6F76652096
:10173000302E316D6D004D6F766520316D6D004D31
:101740006F76652031306D6D005072657061726525
:10175000005072656865617420504C412042656498
:10176000005072656865617420504C4120416C6C7A
:10177000005072656865617420504C412032005001
:1017800072656865617420504C412031005072656B
:1017900070617265005072656865617420414253E2
:1017A000204265640050726568656174204142534F
:1017B00020416C6C00507265686561742041425331
:1017C00020320050726568656174204142532031B7
:1017D0000050726570617265004D38300053776952
:1017E00074636820706F776572206F6E004D3831BA
:1017F0000053776974636820706F776572206F6635
:101800006600436F6F6C646F776E00507265686539
:1018100061742041425300507265686561742050C4
:101820004C41004D38340044697361626C6520732B
:1018300074657070657273004D6F766520617869AC
:10184000730053657420686F6D65206F66667365FD
:10185000747300473238004175746F20686F6D658E
:10186000004D61696E0042656400426564004E6F20
:101870007A7A6C65004E6F7A7A6C650046616E20EC
:1018800073706565640046616E2073706565640001
:1018900054656D70657261747572650042656400AF
:1018A000426564004E6F7A7A6C65004E6F7A7A6C8E
:1018B000650046616E2073706565640046616E2048
:1018C00073706565640054656D70657261747572DE
:1018D0006500507265686561742041425320636FF2
:1018E0006E66005072656865617420504C412063DB
:1018F0006F6E66005049442D43005049442D43000B
:101900005049442D44005049442D44005049442D31
:1019100049005049442D49005049442D5000504938
:10192000442D5000200820466163740020082046A2
:10193000616374002008204D6178002008204D610B
:1019400078002008204D696E002008204D696E0047
:101950004175746F74656D70004F6666004F6E2040
:101960000046616E2073706565640046616E207389
:10197000706565640042656400426564004E6F7A7C
:101980007A6C652032004E6F7A7A6C652032004E98
:101990006F7A7A6C652031004E6F7A7A6C652031EF
:1019A00000436F6E74726F6C004573746570732FB3
:1019B0006D6D004573746570732F6D6D005A73748F
:1019C0006570732F6D6D005A73746570732F6D6D34
:1019D000005973746570732F6D6D00597374657061
:1019E000732F6D6D005873746570732F6D6D005893
:1019F00073746570732F6D6D00412D74726176651F
:101A00006C00412D74726176656C00412D726574B5
:101A10007261637400412D72657472616374004178
:101A20006D6178204500416D6178204500416D6110
:101A300078205A00416D6178205A00416D6178200C
:101A40005900416D6178205900416D61782058003E
:101A5000416D61782058005654726176206D696E30
:101A6000005654726176206D696E00566D696E0085
:101A7000566D696E00566D6178204500566D61782F
:101A8000204500566D6178205A00566D6178205AC5
:101A900000566D6178205900566D617820590056C6
:101AA0006D6178205800566D617820580056652D7C
:101AB0006A65726B0056652D6A65726B00567A2DE9
:101AC0006A65726B00567A2D6A65726B005678797A
:101AD0002D6A65726B005678792D6A65726B0041CC
:101AE0006363656C00416363656C00436F6E747281
:101AF0006F6C0046696C2E204469612E20320046CE
:101B0000696C2E204469612E20320046696C2E20BB
:101B10004469612E20310046696C2E204469612E93
:101B20002031004520696E206D6D33004F666600E0
:101B30004F6E2000436F6E74726F6C005265737449
:101B40006F7265206661696C736166650046696CD9
:101B5000616D656E74004D6F74696F6E0054656DD4
:101B60007065726174757265004D61696E00436FD6
:101B70006E74726F6C00507265706172650054759E
:101B80006E6500496E666F2073637265656E000056
:101B9000060900FE070192032120FFFF08FF07FF4F
:101BA0000000000600000107070602008080808018
:101BB000800080030202060105A0A00507070600B9
:101BC000005050F850F850500507070600002078E4
:101BD000A07028F020050707060000C0C8102040AC
:101BE00098180507070600006090A040A8906802BA
:101BF0000303060104C040800307070601002040DC
:101C000080808040200307070601008040202020BC
:101C1000408005050506000120A870A820050505DF
:101C20000600012020F820200203030602FFC04026
:101C300080050101060003F8020202060200C0C08E
:101C4000050505060001081020408005070706006D
:101C5000007088888888887003070706010040C0E4
:101C600040404040E005070706000070880870808B
:101C700080F8050707060000F81020100808F00596
:101C8000070706000010305090F8101005070706EF
:101C90000000F880F008088870050707060000704B
:101CA0008080F0888870050707060000F80810207B
:101CB000202020050707060000708888708888703B
:101CC0000507070600007088887808087002050577
:101CD000060200C0C000C0C00206060602FFC0C067
:101CE00000C040800407070600001020408040200C
:101CF00010050303060002F800F8040707060100B8
:101D000080402010204080050707060000708808EA
:101D10001020002005070706000070880868A8A8A2
:101D200070050707060000708888F888888805070E
:101D300007060000F08888F08888F005070706008D
:101D40000070888080808870050707060000F08892
:101D500088888888F0050707060000F88080F080F2
:101D600080F8050707060000F88080F08080800575
:101D70000707060000708880B88888700507070686
:101D80000000888888F88888880107070602008094
:101D900080808080808005070706000038101010C2
:101DA0001090600507070600008890A0C0A09088EA
:101DB000050707060000808080808080F8050707FF
:101DC00006000088D8A888888888050707060000CC
:101DD0008888C8A898888805070706000070888842
:101DE00088888870050707060000F08888F08080E2
:101DF0008005070706000070888888A89068050796
:101E000007060000F08888F0A09088050707060004
:101E100000788080700808F0050707060000F820A9
:101E20002020202020050707060000888888888851
:101E30008870050707060000888888888850200574
:101E400007070600008888888888A85005070706C5
:101E50000000888850205088880507070600008801
:101E6000888850202020050707060000F808102069
:101E70004080F8030707060100E08080808080E052
:101E8000050505060001804020100803070706012C
:101E900000E02020202020E005030306000420505D
:101EA00088050101060000F80202020602058040D2
:101EB0000505050600007008788878050707060004
:101EC000008080B0C88888F0050505060000708095
:101ED00080887005070706000008086898888878D9
:101EE0000505050600007088F880700507070600E4
:101EF000003048E0404040400506060600FF70887C
:101F0000887808700507070600008080B0C88888B8
:101F10008801070706020080008080808080030817
:101F2000080601FF200020202020A040040707060B
:101F30000000808090A0C0A090030707060100C0A9
:101F40004040404040E0050505060000D0A8A8A894
:101F5000A8050505060000B0C8888888050505069F
:101F6000000070888888700506060600FFF08888E3
:101F7000F080800506060600FF7888887808080546
:101F80000505060000B0C880808005050506000034
:101F900070807008F00407070600004040E04040F1
:101FA0004030050505060000888888986805050505
:101FB00006000088888850200505050600008888EE
:101FC000A8A8500505050600008850205088050681
:101FD000060600FF88888878087005050506000059
:101FE000F8102040F8030707060100204040804019
:101FF00040200107070602008080808080808003E7
:10200000070706010080404020404080050202068C
:1020100000026890000000060000000000060000BA
:10202000000000060000000000060000000000069E
:102030000000000000060000000000060000000094
:10204000000600000000000600000000000600007E
:10205000000000060000000000060000000000066E
:102060000000000000060000000000060000000064
:10207000000600000000000600000000000600004E
:10208000000000060000000000060000000000063E
:102090000000000000060000000000060000000034
:1020A000000600000000000600000000000600001E
:1020B000000000060000000000060000000000060E
:1020C0000000000000060000000000060000000004
:1020D00000060000000000060000000000060000EE
:1020E00001070706020080008080808080050707C6
:1020F0000600002070A8A0A87020050707060000B1
:10210000304040E04050A8050505060000887050AA
:102110007088050707060000885020F820F8200185
:10212000070706020080808000808080050808067E
:102130000000304820505020906003010106010744
:10214000A0050707060000F888B8B8B888F80507A2
:1021500007060001700878887800F8050505060074
:10216000012850A05028050303060001F8080802C2
:1021700002020602064080050707060000F888A84C
:102180008898A8F8050101060006F8040404060072
:1021900003609090600507070600002020F82020CB
:1021A00000F804050506000360902040F0030505D3
:1021B000060003E020E020E0020202060206408062
:1021C0000508080600FF8888888898E88080050749
:1021D000070600007898987818181802020206027C
:1021E00002C0C00202020602FF408003050506008D
:1021F0000340C04040E0050707060001708888885A
:102200007000F8050505060001A0502850A005073C
:10221000070600008890A858B808080507070600B8
:10222000008890B848982038050808060000C0408B
:10223000C048D838080805070706000020002040DD
:102240008088700508080600004020007088F88823
:10225000880508080600001020007088F8888805A6
:1022600008080600002050007088F88888050808D3
:102270000600006890007088F88888050808060045
:10228000005000708888F88888050808060000203B
:1022900050207088F888880507070600003860A07D
:1022A000B8E0A0B80508080600FF70888080887034
:1022B0002060050808060000402000F880F080F843
:1022C000050808060000081000F880F080F80508EE
:1022D00008060000205000F880F080F80507070687
:1022E00000005000F880F080F80308080601008024
:1022F0004000E0404040E0030808060100204000A4
:10230000E0404040E003080806010040A000E04033
:102310004040E0030707060100A000E0404040E025
:10232000050707060000704848E848487005080897
:1023300006000068900088C8A8988805080806006C
:102340000040207088888888700508080600001002
:1023500020708888888870050808060000205000D2
:1023600070888888700508080600006890007088EA
:1023700088887005080806000050007088888888E2
:1023800070050505060001885020508805080806DC
:1023900000FF1070A8A8A8A8704005080806000053
:1023A000402088888888887005080806000010206A
:1023B00088888888887005080806000020500088F2
:1023C000888888700508080600005000888888887A
:1023D0008870050808060000102088502020202062
:1023E0000509090600FFC040704848704040E004FD
:1023F00008080601FF609090A09090E08005080812
:10240000060000402000700878887805080806005B
:102410000010200070087888780508080600002061
:102420005000700878887805080806000068900059
:102430007008788878050707060000500070087853
:1024400088780508080600002050207008788878F1
:10245000050606060000D02878A0A8500506060646
:1024600000FF70808870206005080806000040208A
:10247000007088F8807005080806000010200070C1
:1024800088F880700508080600002050007088F861
:10249000807005070706000050007088F880700300
:1024A000080806010080400040C04040E0030808E2
:1024B00006010020400040C04040E003080806013B
:1024C0000040A00040C04040E0030707060100A014
:1024D0000040C04040E0050707060000A040A010F3
:1024E000788870050808060000689000B0C88888E1
:1024F000880508080600004020007088888870055C
:1025000008080600001020007088888870050808F8
:1025100006000020500070888888700508080600B2
:1025200000689000708888887005070706000050D2
:102530000070888888700505050600012000F800F5
:10254000200507070600FF1070A8A8A8704005081E
:10255000080600004020008888889868050808065A
:102560000000102000888888986805080806000088
:1025700020500088888898680507070600005000EA
:1025800088888898680509090600FF102000888857
:1025900088F808700407070601FFC04060506040DB
:1025A000E00508080600FF50008888887808700059
:1025B000060900FE000000000001090008FE0000FE
:1025C00005080806000040F0C888889878100508BB
:1025D00008060000C0F88888888888F80505050680
:1025E00000012030F830200508080600002070F8AF
:1025F00020202020E00509090600FF2070A8A8B8C7
:10260000888870200509090600FFE080C0B0A8286E
:102610003028280509090600FFF8A88888888888D6
:10262000A8F8050A0A0600FE205050505088A8A8B5
:10263000887003030306000340A040000000000070
:10264000000000000000007FFFE00000000000002C
:102650000000000000007000E0000000000000002A
:10266000000000000061F8600000000000000000B1
:102670000000000041F82000000000000000000001
:1026800000000040F02000000000000000000000FA
:10269000000040602000000000000000000000007A
:1026A000005801A07F80003FC000000000410400EE
:1026B0005C63A0FBC00079E0000000002082005EA7
:1026C000F7A0F3C00076E0000000002082005EF773
:1026D000A0EBC0007EE0000000004104005C63A0AD
:1026E0007B80003DC0000000008208005801A07BF4
:1026F00080003BC000000001041000406020FBC0CF
:102700000077E00000000104100040F020FBC00052
:1027100070E00000000082080041F820FFC0007F48
:10272000E00000000041040061F8603F00001F80ED
:10273000000000000000007000E01E00000F00001C
:10274000000001FFFF807FFFE00C0000060000009A
:102750000001FFFF800000000000000000000000FA
:10276000000000007FFFE00000000000000000000B
:102770000000007000E00000000000000000000009
:102780000000630C6000000000000000000000007A
:1027900000470E20000000000000000000000000C4
:1027A0004F0F200000000000000000000000005F4C
:1027B0000FA00000000000000000000000005E0705
:1027C000A07F80003FC00000000041040040602066
:1027D000FBC00079E00000000020820040F020F300
:1027E000C00076E00000000020820040F020EBC036
:1027F000007EE0000000004104004060207B80007B
:102800003DC0000000008208005E07A07B80003B06
:10281000C0000000010410005F0FA0FBC00077E0C3
:10282000000000010410004F0F20FBC00070E0000A
:10283000000000820800470E20FFC0007FE000007B
:102840000000410400630C603F00001F8000000096
:10285000000000007000E01E00000F0000000001FA
:10286000FFFF807FFFE00C0000060000000001FF7A
:10287000FF800000001FFFFFFFFFFFFF6000000060
:102880000001FF400000000000FF80000000000089
:102890007F83CF00000C303F87FF80000C301F8605
:1028A0007980000C000F8C30C7838C30E78C30CFE0
:1028B000C7CC31F38C30DCECEC33B98C30D86C6C99
:1028C00033198C30D06C0C33198C30D86C0C331914
:1028D0008C30DC6C0E3B198C30CF7C079F198C3010
:1028E000C77C038F19400000000000026000000058
:1028F0000000061FFFFFFFFFFFF800000A0B0209A0
:102900000C0D0E0807030401000000000000000089
:1029100000000000000000000000000000000000B7
:102920000000000000001211100000000000000074
:102930000000000000000000000000000000000097
:1029400001021020200808102040102040800201C1
:1029500002010804020101020408102040808040A6
:1029600020100804020180040201804020100804A5
:102970000201080402010102040810204080010243
:10298000040810204080050505050705080808080B
:10299000020202020A0A08080404040401010101F7
:1029A00001010101030303030303030304070707F2
:1029B0000C0C0C0C0C0C0C0C020202020606060697
:1029C000060606060B0B0B0B0B0B0B0B0000200077
:1029D0002300260029002C002F00320000010000F7
:1029E00003010601090100002200250028002B0038
:1029F0002E003100340002010000050108010B0126
:102A000000002100240027002A002D0030003300A0
:102A100001010000040107010A014E414E494E49DF
:102A20005459494E46CDCCCC3D0AD7233C17B7D19B
:102A30003877CC2B329595E6241FB14F0A00002041
:102A4000410000C84200401C4620BCBE4CCA1B0EC0
:102A50005AAEC59D7400CE3B93A111241FBECFEF8B
:102A6000D1E2DEBFCDBF00E00CBF14E0A0E0B2E0D9
:102A7000E2E5FAE601E00BBF02C007900D92A83430
:102A8000B107D9F721E1A8E4B4E001C01D92A03755
:102A9000B207E1F71AE2CAE5DAE200E006C02297DF
:102AA0000109FE010BBF0E9452AFC635D10780E07D
:102AB0000807A9F70E9430AA0C9427B50C940000CF
:102AC0001F920F920FB60F9211240BB60F922F93F5
:102AD0003F938F939F93EF93FF932091C6009FB7EF
:102AE000F894E091C90481E08E0F8F773091CA0489
:102AF000831731F0F0E0E75BFB4F20838093C9043C
:102B00009FBFFF91EF919F918F913F912F910F90D8
:102B10000BBE0F900FBE0F901F9018959A01AB013E
:102B2000211581EE38074105510549F182E0809376
:102B3000C00060E079E08DE390E00E940BAF21508F
:102B4000310941095109CA01B90122E030E040E0F0
:102B500050E00E940BAF3093C5002093C4008091D9
:102B6000C10080618093C1008091C1008860809322
:102B7000C1008091C10080688093C10008951092C7
:102B8000C00020E130E0E7CF3FB7F8942091CA04BD
:102B90008091C904821759F0E22FF0E0E75BFB4F08
:102BA000808190E02F5F2F772093CA0402C08FEFBF
:102BB0009FEF3FBF08958FB7F8949091CA04909308
:102BC000C9048FBF08954F925F926F927F928F9248
:102BD0009F92AF92BF92CF92DF92EF92FF920F93AC
:102BE0001F93CF93DF93CDB7DEB7A0970FB6F894BE
:102BF000DEBF0FBECDBF5C014115510561057105FA
:102C0000E9F420E030E040E350E060E070E0A096BE
:102C10000FB6F894DEBF0FBECDBFDF91CF911F91ED
:102C20000F91FF90EF90DF90CF90BF90AF909F906B
:102C30008F907F906F905F904F905BC08E010F5F81
:102C40001F4FC12CD12C76014801422E512C612CF2
:102C5000712C8FEFC81AD80AE80AF80ACB01BA011A
:102C6000A30192010E94E9AECA01F80161938F01AC
:102C7000A901BC01411551056105710551F7F1E04C
:102C8000CF1AD108E108F108F401EC0DFD1D808197
:102C90008A3010F440E301C047E3480F552747FD51
:102CA0005095652F752F20E030E0C50122D081E0DE
:102CB000C81AD108E108F108EFEFCE16DE06EE06DD
:102CC000FE0611F7A0960FB6F894DEBF0FBECDBF7B
:102CD000DF91CF911F910F91FF90EF90DF90CF90F8
:102CE000BF90AF909F908F907F906F905F904F902C
:102CF00008952115310539F48091C00085FFFCCF7E
:102D00004093C60008952A30310509F41CC05BCFFA
:102D1000CF93DF93EC0120E030E04DE050E060E045
:102D200070E0E7DF20E030E04AE050E060E070E093
:102D3000CE01DF91CF91DDCF9A01AB01662757FD20
:102D40006095762FD6CFCF92DF92EF92FF92CF93FE
:102D5000DF93EC016A017B0177FF0FC020E030E0D8
:102D60004DE250E060E070E0C4DFF094E094D09475
:102D7000C094C11CD11CE11CF11C2AE0B701A601C2
:102D8000CE01DF91CF91FF90EF90DF90CF901BCFDE
:102D90002115310539F48091C00085FFFCCF4093A7
:102DA000C600089510CF9A01462F50E060E070E011
:102DB000EFCFCF93DF93EC019A01AB0160E070E0BD
:102DC000E7DFCE01DF91CF91A3CF8F929F92AF9299
:102DD000BF92CF92DF92EF92FF921F93CF93DF9338
:102DE000EC016A017B01122F20E030E0A901C7014C
:102DF000B6010E9418AB87FF0CC020E030E04DE226
:102E000050E060E070E0CE0174DFF7FAF094F7F87C
:102E1000F094B12C60E070E080E09FE3B11641F0E7
:102E200020E030E040E251E40E941FABB394F6CFC3
:102E30009B01AC01C701B6010E943FAA6B017C0156
:102E40000E948CAB4B015C010E94B8AB9B01AC01B2
:102E5000C701B6010E943EAA6B017C012AE0B501C0
:102E6000A401CE01B0DE112341F020E030E04EE2BB
:102E700050E060E070E0CE013CDF112319F120E06A
:102E800030E040E251E4C701B6010E94EDAD6B01B4
:102E90007C010E9487AB4B01AA2497FCA094BA2C1A
:102EA000B501A401CE014FDFC501B4010E94BAAB48
:102EB0009B01AC01C701B6010E943EAA6B017C01D7
:102EC0001150DBCFDF91CF911F91FF90EF90DF90FA
:102ED000CF90BF90AF909F908F90089576CFFC01D8
:102EE00065917591859194910895CF92DF92EF92BB
:102EF000FF920F931F93CF93DF93EC01CC0FDD1F55
:102F0000CC0FDD1FFE01EC59FA4FDE01A059BA4F7C
:102F10002D913D914D915C91608171818281938170
:102F20000E943FAA6B017C01CE01835E974FD7DFE1
:102F30008E01085A1A4FA70196010E943FAAF80174
:102F40006083718382839383CE018F5E974FC7DF47
:102F5000CD5DDD4FA70196010E943FAA688379836A
:102F60008A839B83DF91CF911F910F91FF90EF9008
:102F7000DF90CF9008950E948CA7609349057093CD
:102F80004A0580934B0590934C050895FC012491CC
:102F9000222341F03091C00035FFFCCF2093C600C2
:102FA0000196F4CF4AE050E088E494E0C5CEFC01FD
:102FB0002491222341F03091C00035FFFCCF2093B3
:102FC000C6000196F4CF22E030E088E494E086CF9A
:102FD000FC012491222341F03091C00035FFFCCF49
:102FE0002093C6000196F4CF2AE030E088E494E014
:102FF000CFCECF93DF931F921F92CDB7DEB78091D4
:103000006A1190916B119E012F5F3F4F009719F449
:103010002057314102C0281B390B3A83298389810B
:103020009A810F900F90DF91CF910895FF920F93A7
:103030001F93CF93DF93F62EFC0120812B3369F190
:1030400000910307109104070430110534F5C09175
:103050000507D091060740E64C9F90014D9F300D2B
:103060001124BC01C9018D579A4F0E944CB2FE0138
:10307000EC5CFA4FF082CE01019664E070E00E94B1
:10308000D6AE90930607809305070F5F1F4F1093EE
:1030900004070093030781E001C080E0DF91CF9136
:1030A0001F910F91FF900895CF93DF93D82FC92FD1
:1030B000BDDF882309F43CC0E9E2F8E0849188236D
:1030C00041F09091C00095FFFCCF8093C6003196EF
:1030D000F5CFEDEDF7E08491882341F09091C000A9
:1030E00095FFFCCF8093C6003196F5CFED2FFC2FD6
:1030F0008191882339F09091C00095FFFCCF809397
:10310000C600F6CFEBEDF7E08491882341F0909173
:10311000C00095FFFCCF8093C6003196F5CF80911B
:10312000C00085FFFCCF8AE08093C60081E001C02B
:1031300080E0DF91CF910895DF92EF92FF920F939D
:103140001F93CF93DF93CDB7DEB76E970FB6F8948A
:10315000DEBF0FBECDBF60914D0570914E0561156C
:10316000710559F14DE150E08E010F5F1F4FC8010D
:103170000E940FB21E8EF8017F01E01AF10AD19071
:10318000DD2019F08AE0D812F7CFF801EE0DFF1D0F
:10319000108260E0C80188DF882379F0DD20B1F07B
:1031A0008FEFE81AF80A80914D0590914E058E0D2B
:1031B0009F1D90934E0580934D0581E020914D0514
:1031C00030914E05232B39F480E005C010924E0556
:1031D00010924D05F2CF6E960FB6F894DEBF0FBE7B
:1031E000CDBFDF91CF911F910F91FF90EF90DF90B6
:1031F000089590934E0580934D059ECF6F98779AD2
:1032000008959D9AA5980895F9DFFBDF40E052EC00
:1032100061E070E088E494E081DCE5EDF7E0849122
:10322000882341F09091C00095FFFCCF8093C600A9
:103230003196F5CF8091C00085FFFCCF8AE0809366
:10324000C600E9E2F8E08491882341F09091C00043
:1032500095FFFCCF8093C6003196F5CF84B780FFF1
:1032600014C0EDECF7E09491992341F02091C00057
:1032700025FFFCCF9093C6003196F5CF9091C0000A
:1032800095FFFCCF9AE09093C60081FF14C0EDEB50
:10329000F7E09491992341F02091C00025FFFCCFE5
:1032A0009093C6003196F5CF9091C00095FFFCCF6A
:1032B0009AE09093C60082FF14C0ECEAF7E0949184
:1032C000992341F02091C00025FFFCCF9093C600C8
:1032D0003196F5CF9091C00095FFFCCF9AE0909386
:1032E000C60083FF14C0ECE9F7E09491992341F004
:1032F0002091C00025FFFCCF9093C6003196F5CFFA
:103300009091C00095FFFCCF9AE09093C60085FF96
:1033100014C0ECE8F7E08491882341F09091C0005C
:1033200095FFFCCF8093C6003196F5CF8091C00009
:1033300085FFFCCF8AE08093C60014BEE5E8F7E085
:103340008491882341F09091C00095FFFCCF809339
:10335000C6003196F5CFEAE7F7E08491882341F083
:103360009091C00095FFFCCF8093C6003196F5CFB9
:103370008091C00085FFFCCF8AE08093C600E9E21F
:10338000F8E08491882341F09091C00095FFFCCF34
:103390008093C6003196F5CFEAE6F7E08491882362
:1033A00041F09091C00095FFFCCF8093C60031960C
:1033B000F5CFE9E5F7E08491882341F09091C000D2
:1033C00095FFFCCF8093C6003196F5CFEDE4F7E092
:1033D0008491882341F09091C00095FFFCCF8093A9
:1033E000C6003196F5CFE6E3F7E08491882341F0FB
:1033F0009091C00095FFFCCF8093C6003196F5CF29
:103400008091C00085FFFCCF8AE08093C600EBE28C
:10341000F7E08491882341F09091C00095FFFCCFA4
:103420008093C6003196F5CFEFE1F7E084918823D1
:1034300041F09091C00095FFFCCF8093C60031967B
:10344000F5CF8091C00085FFFCCF8AE08093C60055
:10345000E9E2F8E08491882341F09091C00095FF63
:10346000FCCF8093C6003196F5CFE0E1F7E0849180
:10347000882341F09091C00095FFFCCF8093C60057
:103480003196F5CFB6DD4AE050E0BC0188E494E027
:1034900053DCE9EFF6E08491882341F09091C0007D
:1034A00095FFFCCF8093C6003196F5CF4AE050E0FF
:1034B00060ED74E088E494E03FDC8091C00085FF1B
:1034C000FCCF8AE08093C60081E08093340580932E
:1034D000350580933605809337050E94DC3B80E0FC
:1034E0000E94613D0E946A810E9469620E94874534
:1034F0000E9498A10C94345C0F931F93CF93DF9399
:1035000000914F051091500565E470E0C8010E94DC
:1035100038B2EC01C8010196209761F0188260E092
:1035200070E00E9456AF25E42883DF91CF911F9170
:103530000F91089560E070E0DF91CF911F910F919E
:103540000C9456AF80914F05909150054AE050E0A1
:1035500060E070E001960C94BEB080914F059091B0
:1035600050054AE050E060E070E001960E94BEB075
:10357000CB010895682F772767FD70958091090723
:1035800090910A070E9438B29093500580934F059E
:1035900021E0892B09F420E0822F08950F931F93D7
:1035A000CF93DF938C0184E5E5DF882361F1D5DFDC
:1035B000EC01823091054CF1E9E2F8E08491882336
:1035C00041F09091C00095FFFCCF8093C6003196EA
:1035D000F5CF8091C00085FFFCCF8DE48093C600BD
:1035E0004AE050E0B80188E494E0A6DBBE0182EB3B
:1035F00095E0CCDC8091C00085FFFCCF8AE0809311
:10360000C60081E005C0809155058093380580E0B3
:10361000DF91CF911F910F9108950F931F93CF9337
:10362000DF9300D000D0CDB7DEB726E0EEECF2E0BD
:10363000DE01119601900D922A95E1F7FC01EE0F43
:10364000FF1F21E030E02C0F3D1FE20FF31F6081D0
:103650007181161617061CF1E9E2F8E02491222385
:1036600041F03091C00035FFFCCF2093C600319669
:10367000F5CFE4E1F5E02491222341F03091C00040
:1036800035FFFCCF2093C6003196F5CF2091C000C6
:1036900025FFFCCF2AE02093C6006AE070E08C0191
:1036A000000F111F000F111F09541C4F882777FDB1
:1036B0008095982F0E94BAAB9B01AC01F801608104
:1036C0007181828193810E941FAB60934502709348
:1036D0004602809347029093480226960FB6F894CC
:1036E000DEBF0FBECDBFDF91CF911F910F91089527
:1036F000CF92EF92FF920F931F9320E030E040E7CC
:1037000052E40E941FABC09055057B018C0127E25B
:1037100037E043E257E06FE177E08BE197E00E940A
:10372000FD461F910F91FF90EF90CF90089560910B
:103730004502709146028091470290914802D8CF8D
:1037400027E337E043E357E06FE277E08BE297E06F
:103750000C9422514F925F926F927F928F929F9220
:10376000AF92BF92CF92DF92EF92FF920F931F938F
:10377000CF93DF938C01FC01E651F84FF490EC01FC
:10378000CC0FDD1FCC0FDD1FCE01855D984F5C0196
:10379000FC011082118212821382D2DFCE01875087
:1037A000984F9DDB2B013C016F2D772767FD7095AE
:1037B000872F972F0E94BAAB6B017C01CE01855EEB
:1037C000984F4C0120E030E040EC5FE3C301B201D0
:1037D0000E94EDADA70196010E94EDADF40160835A
:1037E000718382839383FE01E954FC4F8081918130
:1037F000A281B3818093450290934602A093470231
:10380000B093480294DF0E94825AF501108211821F
:103810001282138295DF80E00E945952CE018351BB
:10382000984F3C015CDB9058A70196010E94EDADDA
:10383000F401608371838283938379DF0E94825ACB
:1038400081E00E945952C801E8DEC30148DB9B01B8
:10385000AC010E943FAAA70196010E94EDADF401C0
:10386000608371838283938362DF0E94825AFE01A8
:10387000E059FA4F1082118212821382CE018B5FBF
:10388000974F2DDBCC59DA4F288139814A815B81F2
:103890000E943FAAF5016083718382839383C801EC
:1038A00024DB4EDFF50180819181A281B381F40197
:1038B00080839183A283B3831092450210924602C3
:1038C00010924702109248020E946152F801E85E8D
:1038D000F84F81E08083F801EB5EF84F8083DF9141
:1038E000CF911F910F91FF90EF90DF90CF90BF90FD
:1038F000AF909F908F907F906F905F904F900895C2
:1039000080E1EBE1F7E0ABE2B7E001900D928A9540
:10391000E1F7089580E1EBE2F7E0ABE1B7E0019079
:103920000D928A95E1F70895CF92DF92EF92FF9280
:103930000F931F93CF93DF9343EBE42E43E0F42EDA
:103940000BE117E0CBE2D7E05FE7C52E55E0D52EBF
:10395000F70181917F010EDE8823C9F0CDDDF601EC
:103960002081211104C020915405222329F02881AF
:1039700039814A815B8103C020E030E0A9010E94C7
:103980003FAAF801608371838283938309C0888191
:103990009981AA81BB81F80180839183A283B3833B
:1039A0000C5F1F4F2496FFEFCF1ADF0A87EBE81654
:1039B00083E0F80669F686E4DDDD882391F09CDD7E
:1039C0006B017C0120E030E0A9010E941BAD1816BC
:1039D00044F4C0924502D0924602E0924702F0922F
:1039E0004802DF91CF911F910F91FF90EF90DF90F0
:1039F000CF900895E9E2F8E08491882341F0909116
:103A0000C00095FFFCCF8093C6003196F5CFEFE95B
:103A1000F5E08491882341F09091C00095FFFCCFA0
:103A20008093C6003196F5CFE0910B07F0910C071B
:103A30008191882339F09091C00095FFFCCF80934D
:103A4000C600F6CFECE9F5E08491882341F090912F
:103A5000C00095FFFCCF8093C6003196F5CF089546
:103A6000CF92DF92EF92FF920E948CA76B017C01B4
:103A700080910A02882309F483C020913205309195
:103A800033052115310509F47BC080912E059091F5
:103A90002F05A0913005B0913105B701A601481B53
:103AA000590B6A0B7B0B77FD7EC02330310579F013
:103AB0003CF4213031050CF463C0E9E2F8E011C0B8
:103AC0002430310509F05CC0E9E2F8E042C0E9E2E7
:103AD000F8E023C09091C00095FFFCCF8093C60012
:103AE000319684918111F6CFEBE8F5E0849188233B
:103AF00041F09091C00095FFFCCF8093C6003196B5
:103B0000F5CF8091C00085FFFCCF37C09091C000F9
:103B100095FFFCCF8093C600319684918111F6CF3A
:103B2000E5E7F5E08491882341F09091C00095FF8E
:103B3000FCCF8093C6003196F5CF8091C00085FF01
:103B4000FCCF1BC09091C00095FFFCCF8093C600B6
:103B5000319684918111F6CFEEE5F5E084918823CA
:103B600041F09091C00095FFFCCF8093C600319644
:103B7000F5CF8091C00085FFFCCF8AE08093C6001E
:103B800020910A0230E0A8EEB3E00E942DAF6C0D48
:103B90007D1D8E1D9F1D60932E0570932F058093B4
:103BA000300590933105FF90EF90DF90CF9008950E
:103BB0008F929F92AF92BF92CF92DF92EF92FF923D
:103BC0000F931F93CF93DF9300D01F92CDB7DEB733
:103BD00085E4D0DCB82E811102C00E94825A63EBCA
:103BE000C62E63E0D62E70E7E72E75E0F72E0BE2C7
:103BF00017E0812C912CA12CF60181916F01BADC88
:103C0000882359F1F8012081318142815381298330
:103C10003A834B835C8370DCF80160837183828319
:103C2000938329813A814B815C81F3E08F16910463
:103C3000A1F00E943EAA9B01AC01F7016081718155
:103C4000828193810E943FAAF701608371838283FE
:103C50009383C4014AD9AA24A394FFEF8F1A9F0A21
:103C600084E0E80EF11C0C5F1F4FE4E08E16910417
:103C700009F0C2CFAA2089F00F900F900F900F90FB
:103C8000DF91CF911F910F91FF90EF90DF90CF9038
:103C9000BF90AF909F908F9053CDBB20A1F087E352
:103CA00097E00F900F900F900F90DF91CF911F91A1
:103CB0000F91FF90EF90DF90CF90BF90AF909F90CB
:103CC0008F900C94ED510F900F900F900F90DF910B
:103CD000CF911F910F91FF90EF90DF90CF90BF9009
:103CE000AF909F908F900895EF92FF920F931F9344
:103CF000CF93DF93CDB7DEB76E970FB6F894DEBFE4
:103D00000FBECDBF89E395E00E94A55DBC0180E0B8
:103D100090E02CE330E040E050E00E94E9AE7F9379
:103D20006F933F932F9384ED94E09F938F938E0135
:103D30000F5F1F4F1F930F930E9462B20FB6F8944C
:103D4000DEBF0FBECDBFE9E2F8E08491882341F0E9
:103D50009091C00095FFFCCF8093C6003196F5CFBF
:103D6000F8018191882339F09091C00095FFFCCF34
:103D70008093C600F6CF8091C00085FFFCCF8AE01B
:103D80008093C60060E0C8010E94D48080913C0C02
:103D9000882329F110923C0CE0905505F12C870105
:103DA000000F111F0857114FF8016081718188279A
:103DB00077FD8095982F0E94BAAB20914E023091EA
:103DC0004F0240915002509151020E941BAD1816B3
:103DD00034F4F80111821082C7010E948C636E9640
:103DE0000FB6F894DEBF0FBECDBFDF91CF911F910C
:103DF0000F91FF90EF9008950F931F93CF93DF9350
:103E000083E5B8DB882371F1A8DB8C018F3F910536
:103E100009F040F580E5AEDB882329F09EDBEC015C
:103E200097FD20C002C0CDE0D0E0E3E7F3E0819150
:103E30009191C817D907B1F083E0E33BF807B9F7D0
:103E400061E08C2F0E946AA9602F8C2F0E94A3A989
:103E5000B8018C2F0E9454A8289721F4109357057D
:103E600000935605DF91CF911F910F910895CF9246
:103E7000DF92EF92FF920F931F93CF93DF9388E629
:103E800090E08CDB811152C080913F0783FD4EC0D2
:103E900083E570DB882309F449C02EDB6B017C01CC
:103EA0000091380510E0E801CC0FDD1FC857D14F55
:103EB0000E9487AB79836883C8010E948C6320E0ED
:103EC00030E04AEA52E4C701B6010E9418AB181666
:103ED00054F089E395E00E947F5D60E082EC94E01D
:103EE0000E94E78004C089E395E00E94CC5DE091E8
:103EF000380584E0E89FF0011124E259F14F208158
:103F0000318142815381C701B6010E941BAD181651
:103F10006CF460E087EB94E0DF91CF911F910F91FB
:103F2000FF90EF90DF90CF900C94E780DF91CF91DE
:103F30001F910F91FF90EF90DF90CF900895DF9247
:103F4000EF92FF920F931F93CF93DF93EAE5F5E093
:103F50008491882341F09091C00095FFFCCF80931D
:103F6000C6003196F5CFE091380584E0E89FF00176
:103F70001124E259F14F408151816281738121E026
:103F800030E088E494E00E946E17E7E5F5E0849164
:103F9000882341F09091C00095FFFCCF8093C6002C
:103FA0003196F5CFE0913805F0E0EE0FFF1FE857AE
:103FB000F14F60817181882777FD8095982F0E944D
:103FC000BAABAB01BC0121E030E088E494E00E9490
:103FD0006E17E3E5F5E08491882341F09091C000ED
:103FE00095FFFCCF8093C6003196F5CF4091680EC7
:103FF0005091690E60916A0E70916B0E21E030E075
:1040000088E494E00E946E17E0E5F5E0849188234F
:1040100041F09091C00095FFFCCF8093C60031968F
:10402000F5CF6091860E7091870E882777FD809579
:10403000982F0E94BAABAB01BC0121E030E088E4CC
:1040400094E00E946E1708E81EE0AEE6EA2EAEE0AD
:10405000FA2EC0E0D0E0BAE3DB2EEDE4F5E0849187
:10406000882341F09091C00095FFFCCF8093C6005B
:104070003196F5CF4AE050E0BE0188E494E00E941A
:104080009C168091C00085FFFCCFD092C600F7013E
:1040900041915191619171917F0121E030E088E47B
:1040A00094E00E946E17EAE4F5E08491882341F0E1
:1040B0009091C00095FFFCCF8093C6003196F5CF5C
:1040C000F801619171918F01882777FD8095982F74
:1040D0000E94BAABAB01BC0121E030E088E494E07F
:1040E0000E946E172196C230D10509F0B6CFE5E4E3
:1040F000F5E08491882341F09091C00095FFFCCFBA
:104100008093C6003196F5CF8FEF9FEF0E94E65F58
:104110004AE050E0BC0188E494E00E949C16E1E48F
:10412000F5E08491882341F09091C00095FFFCCF89
:104130008093C6003196F5CF8091380590E00E94BB
:10414000E65F4AE050E0BC0188E494E00E949C16DF
:10415000C0E0D0E01AE3EEE3F5E08491882341F07B
:104160009091C00095FFFCCF8093C6003196F5CFAB
:104170004AE050E0BE0188E494E00E949C168091E1
:10418000C00085FFFCCF1093C600CE010E94E65F01
:104190004AE050E0BC0188E494E00E949C1621961D
:1041A000C230D105C1F6DF91CF911F910F91FF90E1
:1041B000EF90DF90089589E690E0F0D9811115C065
:1041C000E9E6F4E08491882341F09091C00095FFE6
:1041D000FCCF8093C6003196F5CFB1DE8091C00050
:1041E00085FFFCCF8AE08093C600089583E5C2D99D
:1041F000882311F0B2D901C080E080933F07E9E243
:10420000F8E08491882341F09091C00095FFFCCFA5
:104210008093C6003196F5CFE0EBF4E084918823DB
:1042200041F09091C00095FFFCCF8093C60031967D
:10423000F5CF80913F07811103C0E2EAF4E03BC073
:1042400026EA34E080E090E060E0ACE240913F0795
:1042500050E0082E02C0559547950A94E2F740FFBA
:104260001AC071E0760F662331F04091C00045FF1F
:10427000FCCFA093C600F90145915491FA016491D5
:10428000662351F0E091C000E5FFFCCF6093C600CB
:104290004F5F5F4FF3CF762F01962E5F3F4F8530F4
:1042A000910561F0672FD2CF9091C00095FFFCCFB0
:1042B0008093C600319684918111F6CF8091C00021
:1042C00085FFFCCF8AE08093C600089583E552D92C
:1042D000811103C0E9E2F8E00EC03FD98D3308F048
:1042E0008CE380930A0208959091C00095FFFCCF63
:1042F0008093C600319684918111F6CF40910A02D5
:1043000050E060E070E08CE694E00E94E817809155
:10431000C00085FFFCCF8AE08093C600089583E546
:1043200029D9882341F119D9823010F1EFE2F8E060
:104330008491882341F09091C00095FFFCCF809339
:10434000C6003196F5CFE4EDF2E08491882341F088
:104350009091C00095FFFCCF8093C6003196F5CFB9
:104360008091C00085FFFCCF8AE08093C60008954D
:10437000813009F43EC088E4FDD8882389F0EDD867
:104380008A3A91053CF0833221E092072CF082E2D8
:1043900091E002C08AEA90E09093591180935811FD
:1043A00086E4E8D8882379F0D8D88F3F910519F0B2
:1043B00014F08FEF90E097FF02C080E090E09093C0
:1043C00055118093541182E4D5D8882309F44DC047
:1043D000C4D88530910534F0883891052CF087E8F1
:1043E00090E002C085E090E09093571180935611C1
:1043F000089588E4BFD8882389F0AFD88A3A910518
:104400003CF0833221E092072CF082E291E002C07E
:104410008AEA90E0909353118093521186E4AAD8CF
:10442000882379F09AD88F3F910519F014F08FEF17
:1044300090E097FF02C080E090E090934F1180934E
:104440004E1182E497D8882381F087D88530910572
:1044500034F0883891052CF087E890E002C085E0C0
:1044600090E09093511180935011089583E582D884
:10447000882391F041D820E030E04AE754E40E94DC
:10448000EDAD0E948CAB60931F027093200280936D
:10449000210290932202089588E56CD881110EC004
:1044A00089E568D881110AC08AE564D8811106C0FF
:1044B00085E460D8811102C00C94E85A0E94825AA7
:1044C00088E558D8882319F0179A1092180789E5BB
:1044D00051D8882319F0169A109219078AE54AD8FC
:1044E000882319F0159A10921A0785E443D8882377
:1044F00019F0149A139A089508953F924F925F927B
:104500006F927F928F929F92AF92BF92CF92DF92E3
:10451000EF92FF920F931F93CF93DF93D3EB8D2EE8
:10452000D3E09D2ECDE7DCE01DE8A12E1CE0B12EEE
:104530000DE31CE0312CF40181914F011BD888233D
:1045400009F458C0F3E03F124FC00E947C1A6B017F
:104550007C0120E030E040EA51E40E9418AB87FF84
:104560003EC0A7019601688179818A819B810E9462
:104570001FAB2B013C019B01AC016091510C709170
:10458000520C8091530C9091540C0E94EDAD6093AD
:10459000510C7093520C8093530C9093540CA301C4
:1045A0009201F50160817181828193810E94EDAD5C
:1045B000F5016083718382839383F8016081718147
:1045C000828193810E94B8ABA30192010E94EDAD5C
:1045D0000E948CABF8016083718382839383C882CD
:1045E000D982EA82FB8206C00E947C1A68837983A2
:1045F0008A839B8333942496F4E0AF0EB11C0C5F46
:104600001F4F84E0381297CFDF91CF911F910F9108
:10461000FF90EF90DF90CF90BF90AF909F908F90E2
:104620007F906F905F904F903F9008958F929F92F0
:10463000AF92BF92CF92DF92EF92FF92ECE2F3E063
:104640008491882341F09091C00095FFFCCF809326
:10465000C6003196F5CF40912B0750912C07609101
:104660002D0770912E0722E030E088E494E00E944C
:104670006E17E8E2F3E08491882341F09091C00046
:1046800095FFFCCF8093C6003196F5CF40912F0760
:1046900050913007609131077091320722E030E08D
:1046A00088E494E00E946E17E4E2F3E084918823AA
:1046B00041F09091C00095FFFCCF8093C6003196E9
:1046C000F5CF4091330750913407609135077091D1
:1046D000360722E030E088E494E00E946E17E0E2C2
:1046E000F3E08491882341F09091C00095FFFCCFC6
:1046F0008093C6003196F5CF409137075091380727
:104700006091390770913A0722E030E088E494E044
:104710000E946E178FB7F8944091A10C5091A20C93
:104720006091A30C7091A40C8090A50C9090A60CA5
:10473000A090A70CB090A80CC090A90CD090AA0C87
:10474000E090AB0CF090AC0C8FBFE5E1F3E084910E
:10475000882341F09091C00095FFFCCF8093C60064
:104760003196F5CF2AE030E088E494E00E94791693
:10477000E1E1F3E08491882341F09091C00095FF3E
:10478000FCCF8093C6003196F5CF2AE030E0B5012A
:10479000A40188E494E00E947916EDE0F3E08491AE
:1047A000882341F09091C00095FFFCCF8093C60014
:1047B0003196F5CF2AE030E0B701A60188E494E015
:1047C0000E9479168091C00085FFFCCF8AE080931B
:1047D000C600FF90EF90DF90CF90BF90AF909F907A
:1047E0008F900895CF93DF930E94825A8091450263
:1047F00090914602A0914702B091480280933B07F6
:1048000090933C07A0933D07B0933E0780914302ED
:104810009091440290937E0580937D0584E690E01C
:1048200090934402809343020E94BB1781E00E9450
:10483000595270D8109245021092460210924702C7
:104840001092480288E50E94BA1AD82F89E50E9482
:10485000BA1AC82F8AE50E94BA1AD11105C0C1112F
:1048600007C091E0982705C0CC2311F0982F01C014
:1048700090E090930D02911102C0882321F082E014
:1048800090E00E94AA1B80910D02811102C0DD23DD
:1048900021F080E090E00E94AA1B80910D0281111E
:1048A00002C0CC2321F081E090E00E94AA1B0E946C
:1048B000A01B80E00E94595280913B0790913C07D9
:1048C000A0913D07B0913E07809345029093460228
:1048D000A0934702B093480280917D0590917E0598
:1048E00090934402809343020E94BB170E9461523E
:1048F000DF91CF919BCEE2E2F3E08191882339F002
:104900009091C00095FFFCCF8093C600F6CF8091B8
:10491000C00085FFFCCF8AE08093C600E5E0F3E0AD
:104920008491882341F09091C00095FFFCCF809343
:10493000C6003196F5CF1E9903C0E3E1F3E009C04C
:10494000EDE1F3E006C09091C00095FFFCCF8093AD
:10495000C60081918111F7CF8091C00085FFFCCF07
:104960008AE08093C600EDEFF2E08491882341F065
:104970009091C00095FFFCCF8093C6003196F5CF93
:104980001D9903C0E3E1F3E009C0EDE1F3E006C0E7
:104990009091C00095FFFCCF8093C600819181115A
:1049A000F7CF8091C00085FFFCCF8AE08093C600DE
:1049B000E5EFF2E08491882341F09091C00095FFEB
:1049C000FCCF8093C6003196F5CF379903C0E3E161
:1049D000F3E009C0EDE1F3E006C09091C00095FF5F
:1049E000FCCF8093C60081918111F7CF8091C000E8
:1049F00085FFFCCF8AE08093C600089583E50E947E
:104A0000BA1A8823F9F00E947C1AAB01BC014093CA
:104A1000650C5093660C6093670C7093680C409320
:104A20005D0C50935E0C60935F0C7093600C8CEA8D
:104A300092E00E94D7178091C00085FFFCCF8AE0EA
:104A40008093C60080E50E94BA1A8823B9F00E94BC
:104A50007C1AAB01BC014093650C5093660C6093CB
:104A6000670C7093680C8FE892E00E94D7178091D2
:104A7000C00085FFFCCF8AE08093C60082E50E94DB
:104A8000BA1A8823B9F00E947C1AAB01BC0140938A
:104A9000610C5093620C6093630C7093640C80E71C
:104AA00092E00E94D7178091C00085FFFCCF8AE07A
:104AB0008093C60084E50E94BA1A8823B9F00E9448
:104AC0007C1AAB01BC0140935D0C50935E0C60936B
:104AD0005F0C7093600C82E592E00E94D717809182
:104AE000C00085FFFCCF8AE08093C600089583E56F
:104AF0000E94BA1A882351F00E947C1A6093690CB4
:104B000070936A0C80936B0C90936C0C84E50E94FC
:104B1000BA1A882351F00E947C1A60934D0C70934E
:104B20004E0C80934F0C9093500C82E40E94BA1A62
:104B3000882361F00E947C1A0E948CAB60939D0CCC
:104B400070939E0C80939F0C9093A00C88E50E941C
:104B5000BA1A882351F00E947C1A6093590C709302
:104B60005A0C80935B0C90935C0C8AE50E94BA1AF5
:104B7000882351F00E947C1A6093550C7093560C58
:104B80008093570C9093580C85E40E94BA1A88239E
:104B900051F00E947C1A6093510C7093520C8093D8
:104BA000530C9093540C08958F929F92AF92BF92A2
:104BB000CF92DF92EF92FF920F931F93CF93DF93E9
:104BC00003EBC02E03E0D02E8BE2E82E87E0F82E18
:104BD00004E615E0C0E0D0E0F60181916F010E948B
:104BE000BA1A882309F10E947C1A4B015C01F80172
:104BF00020813181428153810E943EAA9B01AC01F8
:104C0000F70160817181828193810E943FAAF7013F
:104C10006083718382839383F80180829182A28270
:104C2000B382CE010E9475172196F4E0EF0EF11CBD
:104C30000C5F1F4FC330D10579F6DF91CF911F91E3
:104C40000F91FF90EF90DF90CF90BF90AF909F902B
:104C50008F900C94A01B0F931F93CF93DF938AED3B
:104C600090E00E94CE1A811173C088E50E94BA1AA2
:104C7000882381F0C0913805D0E00E947C1AFE01A3
:104C8000EE0FFF1FEE0FFF1FE15FFD4F608371838B
:104C90008283938389E50E94BA1A882381F0C091A8
:104CA0003805D0E00E947C1AFE01EE0FFF1FEE0FC8
:104CB000FF1FE95EFD4F6083718382839383E9E286
:104CC000F8E08491882341F09091C00095FFFCCFDB
:104CD0008093C6003196F5CFE2E4F2E08491882318
:104CE00041F09091C00095FFFCCF8093C6003196B3
:104CF000F5CFCFE0D2E000E21CE28091C00085FF5A
:104D0000FCCF0093C600499159916991799122E0B5
:104D100030E088E494E00E946E178091C00085FF27
:104D2000FCCF1093C6004C815D816E817F8122E0B3
:104D300030E088E494E00E946E1782E0C731D80723
:104D4000E1F68091C00085FFFCCF8AE08093C60029
:104D5000DF91CF911F910F91089585E40E94BA1AB7
:104D6000811110C080E50E94BA1A8823A9F00E9420
:104D70007C1A609375027093760280937702909309
:104D800078020AC00E947C1A0E9487AB62307105CB
:104D90004CF3EFE2F8E0D5C089E40E94BA1A882308
:104DA00061F00E947C1A0E94AC6D60937102709356
:104DB0007202809373029093740284E40E94BA1A80
:104DC000882361F00E947C1A0E94B86D60936D0286
:104DD00070936E0280936F029093700283E40E943E
:104DE000BA1A882351F00E947C1A6093690270936A
:104DF0006A0280936B0290936C028CE40E94BA1A50
:104E0000882341F00E947C1A0E9487AB70930C02A9
:104E100060930B0280910B0290910C02C39734F0C7
:104E200082E390E090930C0280930B020E94B75FA4
:104E3000E9E2F8E08491882341F09091C00095FF69
:104E4000FCCF8093C6003196F5CFEBE3F3E0819180
:104E5000882339F09091C00095FFFCCF8093C60065
:104E6000F6CF409175025091760260917702709171
:104E7000780222E030E088E494E00E946E17EFE3CD
:104E8000F3E08191882339F09091C00095FFFCCF29
:104E90008093C600F6CF609171027091720280918A
:104EA0007302909174020E94B26DAB01BC0122E0CA
:104EB00030E088E494E00E946E17E3E4F3E081912F
:104EC000882339F09091C00095FFFCCF8093C600F5
:104ED000F6CF60916D0270916E0280916F02909199
:104EE00070020E94BE6DAB01BC0122E030E088E49C
:104EF00094E00E946E17E7E4F3E08191882339F093
:104F00009091C00095FFFCCF8093C600F6CF4091F2
:104F1000690250916A0260916B0270916C0222E00A
:104F200030E088E494E00E946E178091C00085FF15
:104F3000FCCF1AC09091C00095FFFCCF8093C600B3
:104F4000319684918111F6CFEBE4F3E081918823CF
:104F500039F09091C00095FFFCCF8093C600F6CF4A
:104F60008091C00085FFFCCF8AE08093C600089541
:104F7000EF92FF920F93CF93DF9385E40E94BA1ACA
:104F8000882321F00E94AD1AEC0102C0C0E0D0E0FD
:104F900083E40E94BA1A882321F00E94AD1A7C0192
:104FA00003C045E0E42EF12C85E50E94BA1A88235F
:104FB00029F00E94AD1A01E0892B09F400E083E595
:104FC0000E94BA1A882319F00E947C1A0BC0D7FFDE
:104FD00005C060E070E08CE892E404C060E070E03E
:104FE00086E193E4C230D10510F4C09338051092E5
:104FF0003305109232059701AE010E94376781E0B8
:1050000090E09093330580933205DF91CF910F911B
:10501000FF90EF9008952F923F924F925F926F9280
:105020007F928F929F92AF92BF92CF92DF92EF9238
:10503000FF920F931F93CF93DF9300D000D0CDB793
:10504000DEB785E197E09C838B83E4E6F5E0FA83A5
:10505000E9830BE217E01E821D82212C312CEB81AB
:10506000FC818191FC83EB83882309F49BC0ED8153
:10507000FE81ED5DFD4F2081318142815381ED81C3
:10508000FE81E85AFA4F60817181828193810E948A
:105090003FAA20E030E040E05FE30E94EDAD9B01DD
:1050A000AC01F80160817181828193810E941BAD06
:1050B00018164CF48D819E818B5F974F0E946F175D
:1050C0009B01AC0103C020E030E0A901F801808021
:1050D0009180A280B380C501B4010E943EAA6B01F9
:1050E0007C0120E030E040EA51EC0E941BAD181634
:1050F0001CF0EFE2F8E038C020E030E040EA51E494
:10510000C701B6010E9418AB87FFF3CFE981FA818E
:105110004080518062807380A7019601C301B20173
:105120000E943EAA6B017C01A30192010E943EAA4B
:105130009B01AC01C501B4010E943FAAF801608344
:10514000718382839383E981FA81C082D182E28272
:10515000F382C1010E94751725C09091C00095FF90
:10516000FCCF8093C600319684918111F6CFE5E2A1
:10517000F2E08491882341F09091C00095FFFCCF2C
:105180008093C6003196F5CF8091C00085FFFCCF9B
:105190008AE08093C60087E192E00E94FF8048E2A7
:1051A00050E025C0FFEF2F1A3F0A89819A810496AB
:1051B0009A838983ED81FE813496FE83ED830C5FB3
:1051C0001F4FF3E02F16310409F049CF0E94A01BB6
:1051D00060E087E092E00E94E78043E952E068ECFB
:1051E00070E080E090E00E94D23B4AEB52E068EC35
:1051F00070E080E090E026960FB6F894DEBF0FBE18
:10520000CDBFDF91CF911F910F91FF90EF90DF9075
:10521000CF90BF90AF909F908F907F906F905F9056
:105220004F903F902F900C94D23B1F93CF93DF93DE
:10523000C3EBD3E010E089910E94BA1A882339F0B9
:105240000E947C1A0E9487AB812F0E94275B1F5F00
:10525000143089F782E40E94BA1A882339F00E9438
:105260007C1A0E9487AB84E00E94275B83E50E9442
:10527000BA1A882359F0C0E00E947C1A0E9487ABBA
:105280008C2F0E94275BCF5FC530B1F7DF91CF91A4
:105290001F9108951F93CF93DF9383E50E94BA1A5D
:1052A000811104C0C3EBD3E010E00FC0C0E00E9446
:1052B0007C1A0E948CAB8C2F0E94CA5BCF5FC530DA
:1052C000B1F7F0CF1F5F143069F089910E94BA1ACC
:1052D0008823C1F30E947C1A0E948CAB812F0E940C
:1052E000CA5BF0CF82E40E94BA1A882339F00E9488
:1052F0007C1A0E948CAB84E00E94CA5BDF91CF9144
:105300001F910C949B5C1F93CF93DF9383E50E94C6
:10531000BA1A882309F44AC00E94AD1A8130910557
:1053200039F0029709F042C0C3EBD3E010E021C08E
:10533000C3EBD3E010E089910E94BA1A882341F0B0
:105340000E947C1A0E9487AB4FEF812F0E94795BED
:105350001F5F143081F782E40E94BA1A882331F16A
:105360000E947C1A0E9487AB4FEF1DC01F5F143054
:1053700079F089910E94BA1A8823C1F30E947C1A9D
:105380000E9487AB462F6FEF812F0E94795BEECF93
:1053900082E40E94BA1A882349F00E947C1A0E9473
:1053A00087AB462F6FEF84E00E94795BDF91CF914E
:1053B0001F910C949B5C0E94BB17E0910707F09132
:1053C0000807EC5CFA4F80818823A1F0EBEFF1E055
:1053D0008491882341F09091C00095FFFCCF809389
:1053E000C6003196F5CF8091C00085FFFCCF8AE0E2
:1053F0008093C600089588E494E00E94DB15EEEFE8
:10540000F1E08491882341F09091C00095FFFCCF9A
:105410008093C6003196F5CF40910D0750910E074D
:1054200060910F07709110074F5F5F4F6F4F7F4F75
:105430002AE030E088E494E00E9479168091C00070
:1054400085FFFCCF8AE08093C600B5CFCF93C62FEF
:10545000EFE2F8E02491222379F03091C00035FF8B
:10546000FCCF2093C6003196F5CF3091C00035FFB8
:10547000FCCF2093C6000196FC0124912111F5CFA9
:1054800040910D0750910E0760910F077091100722
:105490002AE030E088E494E00E9479168091C00010
:1054A00085FFFCCF8AE08093C600C111A4DF109273
:1054B000520510925105CF910895CF92DF92EF924D
:1054C000FF92CF93DF93EC01C0905805D09059051F
:1054D000E0905A05F0905B05A701960168817981FB
:1054E0008A819B810E9418AB87FF04C0C882D98241
:1054F000EA82FB82C0905C05D0905D05E0905E057D
:10550000F0905F05A70196016C817D818E819F815E
:105510000E9418AB87FF04C0CC82DD82EE82FF823E
:1055200020E030E0A90160916005709161058091F3
:105530006205909163050E943FAA6B017C019B016B
:10554000AC01688579858A859B850E9418AB87FFA9
:1055500004C0C886D986EA86FB86C0902302D09014
:105560002402E0902502F0902602A70196016881AE
:1055700079818A819B810E941BAD181624F4C88210
:10558000D982EA82FB82C0902702D0902802E09064
:105590002902F0902A02A70196016C817D818E81FB
:1055A0009F810E941BAD181624F4CC82DD82EE820E
:1055B000FF82C0902B02D0902C02E0902D02F09040
:1055C0002E02A7019601688579858A859B850E94B0
:1055D0001BAD181624F4C886D986EA86FB86DF91AF
:1055E000CF91FF90EF90DF90CF9008958F929F9290
:1055F000AF92BF92CF92DF92EF92FF920F931F93E1
:10560000CF93DF93EC018B0180913F0783FD90C026
:10561000FB0180809180A280B380288139814A81FA
:105620005B81C501B4010E943EAA6B017C0120E0B0
:1056300030E0A9010E9418AB882309F479C0E091F9
:10564000550524E0E29FF0011124E259F14F209129
:1056500006023091070240910802509109026081D0
:105660007181828193810E9418AB87FF25C0888257
:105670009982AA82BB82E9E2F8E08491882341F012
:105680009091C00095FFFCCF8093C6003196F5CF76
:10569000E1EEF1E08491882341F09091C00095FF04
:1056A000FCCF8093C6003196F5CF8091C00085FF76
:1056B000FCCF8AE08093C600C701B6010E9487AB89
:1056C00097FF07C090958095709561957F4F8F4F9C
:1056D0009F4F6D3C71408105910554F1F801808127
:1056E0009181A281B38188839983AA83BB83E9E2F4
:1056F000F8E08491882341F09091C00095FFFCCFA1
:105700008093C6003196F5CFE3ECF1E084918823D5
:1057100041F09091C00095FFFCCF8093C600319678
:10572000F5CF8091C00085FFFCCF8AE08093C60052
:10573000DF91CF911F910F91FF90EF90DF90CF906D
:10574000BF90AF909F908F9008958BE197E0B5DE6A
:105750000E94BB1767E277E087E397E047DF20917D
:105760001B0730911C0740911D0750911E07609147
:105770002B0770912C0780912D0790912E070E9486
:1057800018AB811117C020911F073091200740915D
:1057900021075091220760912F0770913007809167
:1057A0003107909132070E9418AB811103C00E940B
:1057B000971B1CC06091430270914402882777FDBB
:1057C0008095982F0E94BAAB2091450230914602F5
:1057D00040914702509148020E94EDAD20E030E038
:1057E00048EC52E40E941FAB0E94781B0C94801C72
:1057F000CF92DF92EF92FF92CF93DF93C82F823048
:1058000060F1E9E2F8E08491882341F09091C000D2
:1058100095FFFCCF8093C6003196F5CF8091C000F4
:1058200085FFFCCF84E58093C6004AE050E06C2FF2
:1058300088E494E00E94D316EBE4F3E0819188239E
:1058400039F09091C00095FFFCCF8093C600F6CF51
:105850008091C00085FFFCCFB2C08093380586E4FC
:105860000E94BA1A8823A1F00E947C1A6B017C0165
:1058700020E030E0A9010E941BAD18165CF4C09234
:105880004502D0924602E0924702F092480202C0DE
:10589000D0E001C0D1E080915505C81709F469C076
:1058A0000E948A1CCC2ED12CE0905505F12CF601DB
:1058B000EE0FFF1FEE0FFF1FE15FFD4FD701AA0F95
:1058C000BB1FAA0FBB1FA15FBD4F2D913D914D91F5
:1058D0005C9160817181828193810E943EAA9B01CB
:1058E000AC0160912B0770912C0780912D0790914E
:1058F0002E070E943FAA60932B0770932C0780937A
:105900002D0790932E07F601EE0FFF1FEE0FFF1FDE
:10591000E95EFD4FD701AA0FBB1FAA0FBB1FA95EEF
:10592000BD4F2D913D914D915C916081718182813E
:1059300093810E943EAA9B01AC0160912F07709158
:10594000300780913107909132070E943FAA6093FF
:105950002F07709330078093310790933207C093DD
:1059600055050E94A01BDD2321F080914902811181
:1059700030C0E9E2F8E08491882341F09091C000C2
:1059800095FFFCCF8093C6003196F5CFECE5F3E0B0
:105990008191882339F09091C00095FFFCCF8093CE
:1059A000C600F6CF6091550570E04AE050E088E40B
:1059B00094E00E949C168091C00085FFFCCF8AE095
:1059C0008093C600DF91CF91FF90EF90DF90CF9052
:1059D0000895BBDECECF2F923F924F925F926F928F
:1059E0007F928F929F92AF92BF92CF92DF92EF926F
:1059F000FF920F931F93CF93DF93CDB7DEB7C654BB
:105A0000D1090FB6F894DEBF0FBECDBF1C017EA733
:105A10006DA7142FDB0114968D909D90AD90BC90D6
:105A20001797CD90DD90ED90FC90A5019401C701F2
:105A3000B6010E9428AD23966CAF7DAF8EAF9FAFAD
:105A4000239780912B0790912C07A0912D07B0915F
:105A50002E07898F9A8FAB8FBC8FA7019601BC014F
:105A6000CD010E943FAA6FAB78AF89AF9AAF80910A
:105A70002F0790913007A0913107B09132078D8F99
:105A80009E8FAF8FB8A3A5019401BC01CD010E94E8
:105A90003FAA6BAF7CAF8DAF9EAF809133079091E3
:105AA0003407A0913507B091360789A39AA3ABA319
:105AB000BCA39C01AD01D10118966D917D918D9192
:105AC0009C911B970E943EAA6DA37EA38FA398A7CB
:105AD000D1011C968D919D910D90BC91A02D279682
